:100000000C9433010C9450010C9450010C94500149
:100010000C9450010C9450010C94FF010C9450016D
:100020000C9450010C9450010C9450010C9450010C
:100030000C9450010C9450010C9456010C945001F6
:100040000C9450010C9450010C9450010C945001EC
:100050000C9450010C9450010C9450010C945001DC
:100060000C9450010C9450013E4141413E00427FAE
:10007000400042615149462141454B311814127FDD
:100080001027454545393C4A494930017109050366
:100090003649494936064949291E0000000000003A
:1000A000002F00000007000700147F147F14242A8B
:1000B0007F2A12C4C810264636495522500005032F
:1000C0000000001C2241000041221C0014083E08D0
:1000D0001408083E080800005030001010101010DE
:1000E000006060000020100804023E4141413E00D3
:1000F000427F400042615149462141454B3118142D
:10010000127F1027454545393C4A4949300171095C
:1001100005033649494936064949291E0036360045
:100120000000563600000814224100141414141460
:1001300000412214080201510906324959513E7EFC
:100140001111117E7F494949363E414141227F418B
:1001500041221C7F494949417F090909013E414922
:10016000497A7F0808087F00417F41002040413FD5
:10017000017F081422417F404040407F020C027FF3
:100180007F0408107F3E4141413E7F090909063E38
:100190004151215E7F0919294646494949310101EA
:1001A0007F01013F4040403F1F2040201F3F40381B
:1001B000403F6314081463070870080761514945FC
:1001C00043007F414100552A552A550041417F0097
:1001D00004020102044040404040000102040020AB
:1001E000545454787F484444383844444420384474
:1001F00044487F3854545418087E0901020C525266
:10020000523E7F0804047800447D40002040443D75
:10021000007F1028440000417F40007C04180478CF
:100220007C0804047838444444387C1414140808C6
:100230001414187C7C080404084854545420043FC7
:100240004440203C4040207C1C2040201C3C40304E
:10025000403C44281028440C5050503C4464544CBA
:1002600044000609090611241FBECFEFD8E0DEBF07
:10027000CDBF11E0A0E0B1E0E8E4F5E102C00590F7
:100280000D92A239B107D9F721E0A2E9B1E001C08E
:100290001D92AB3CB207E1F70E9474020C94A20AD3
:1002A0000C940000309A319A329A08951F920F925E
:1002B0000FB60F9211242F933F934F935F938F9319
:1002C0009F9396B181E0982726B126952170282723
:1002D00036B132FB332730F93827492F417090FF70
:1002E0001CC0809194019091950101969093950185
:1002F000809394018233910539F481E090E09093EA
:1003000093018093920109C08C3B924031F484E0C8
:1003100090E090939301809392012223E1F08091E9
:100320009401909195010196909395018093940189
:100330008233910539F482E090E0909393018093A9
:10034000920109C08C3B924031F485E090E090939B
:100350009301809392013323E9F08091940190916D
:1003600095010196909395018093940182339105B4
:1003700039F483E090E0909393018093920122C03E
:100380008C3B924039F486E090E090939301809307
:10039000920107C080919201909193018430910560
:1003A0008CF0411121C021111FC031111DC080935B
:1003B0009C0110929301109292011092950110925B
:1003C000940112C0009781F041110EC021110CC0A0
:1003D00031110AC080939C011092930110929201F6
:1003E00010929501109294019F918F915F914F917E
:1003F0003F912F910F900FBE0F901F9018951F9255
:100400000F920FB60F9211248F93809196018F5FF8
:10041000809396018F910F900FBE0F901F901895AB
:1004200087E090E00E94880A8093A50186E090E032
:100430000E94880A8093A60185E090E00E94880AC5
:100440008093A70183E090E00E94880A8093C7010F
:1004500082E090E00E94880A8093C80181E090E0E9
:100460000E94880A8093C90108956091A50187E0E0
:1004700090E00E94900A6091A60186E090E00E94C0
:10048000900A6091A70185E090E00E94900A609137
:10049000A80184E090E00E94900A6091C70183E087
:1004A00090E00E94900A6091C80182E090E00E9472
:1004B000900A6091C90181E090E00E94900A6091E9
:1004C000CA0180E090E00E94900A089588E10FB68A
:1004D000F89480936000109260000FBEE0E6F0E0B8
:1004E000808380E680830895F8940E94110A0E9418
:1004F000250A0E941C0A0E9466020E94D0060E94E1
:1005000052010E941D070E94560778940E94100213
:100510008091A8018823A9F08FE49EE4A0E2B0E0D6
:100520008093BB019093BC01A093BD01B093BE0129
:100530008093A9019093AA01A093AB01B093AC0161
:1005400014C08FE496E4A6E4B0E08093BB019093DE
:10055000BC01A093BD01B093BE018093A90190930B
:10056000AA01A093AB01B093AC010F2EF7EC2F2E94
:10057000F1E03F2EF02D0F2EF5EA6F2EF1E07F2EE9
:10058000F02DC1EAD1E00F2EF2EA4F2EF1E05F2EFE
:10059000F02D80919601823020F0109296010E94F9
:1005A00043078DE991E00E94D1090F2EF9EA8F2EC1
:1005B000F1E09F2EF02D0F2EFBEBAF2EF1E0BF2EC2
:1005C000F02D0F2EF0E0CF2EF1E0DF2EF02D0F2ECC
:1005D000F5E0EF2EF1E0FF2EF02D05E110E0209187
:1005E0009D0130919E0140919F015091A001609129
:1005F000A1017091A2018091A3019091A4010E9498
:100600009D08D3019C91888198136AC0E6EAF1E0C5
:100610008081D2019C91891363C0E7EAF1E02081D7
:10062000A4EAB1E09C9129135BC0E8EAF1E0908173
:10063000992309F455C090919B01891709F450C082
:1006400080939B0181E00E944C0A0E94430760E076
:1006500070E080E090E00E94380760E08BE091E07D
:100660000E941A084AE351E0BA0184E191E00E9435
:10067000360810929C01A3EAB1E02C9130E0C90148
:100680000F968D3391050CF0CC979093C601809313
:10069000C50120919C0121111EC0E3EAF1E02081F7
:1006A00030E082179307B9F08DE991E00E94D109FB
:1006B00085E090E00E94390A80919C0181110BC075
:1006C000A3EAB1E02C9130E08091C5019091C60180
:1006D0002817390749F780E00E944C0A10929C01C4
:1006E000F1019081888198136BC0A8ECB1E08C91E6
:1006F000F2019081891364C0A9ECB1E02C91E4EA85
:10070000F1E0908129135CC0AAECB1E09C9199239F
:1007100009F456C090919A01891709F451C0809349
:100720009A0181E00E944C0A0E94430760E070E059
:1007300080E090E00E94380760E088E191E00E944C
:100740001A084AE351E0BA0184E191E00E943608B8
:1007500010929C01E3EAF1E0208130E0C9010F969C
:100760008D3391050CF0CC979093C6018093C50111
:1007700020919C0121111EC0A3EAB1E02C9130E030
:1007800082179307B9F08DE991E00E94D10985E0C5
:1007900090E00E94390A80919C0181110BC0E3EA2C
:1007A000F1E0208130E08091C5019091C6012817C9
:1007B000390749F780E00E944C0A10929C01E9CE6B
:1007C00080919C01833009F495C228F4813061F056
:1007D000823079F0DECE853009F4B7C208F4B0C2B9
:1007E000863009F4B7C2D5CE1092960110929C01C2
:1007F000C2CE1092960110929C0181E080939901E3
:1008000010929801109297010E944307C7E9D1E026
:100810000F2EF7EA4F2EF1E05F2EF02D0F2EF6EAA5
:100820006F2EF1E07F2EF02D0F2EF5EACF2EF1E0A6
:10083000DF2EF02D54C288810E946E0980919C01A8
:100840008230A1F0833009F429C2813009F033C22B
:1008500010929C01109296018091970190919801BD
:100860000197909398018093970125C210929C0163
:100870001092960180919701909198018430910592
:1008800009F404C18530910509F403C2039709F006
:1008900012C26091A5017091A6018091A70190916B
:1008A000A8010AE311E021E231E047E251E00E94B1
:1008B000290910929C0180919601823008F052C063
:1008C0000F2EFDE0FF2EF02D40C0813019F0833057
:1008D000F9F03BC010929601D6018C91811102C0B3
:1008E000FC9233C08150F60180836091A501709124
:1008F000A6018091A7019091A8010AE311E021E2ED
:1009000031E047E251E00E94290910929C011DC08C
:1009100010929601D6018C918F5F8D3010F48C93DC
:1009200002C0F60110826091A5017091A60180912C
:10093000A7019091A8010AE311E021E231E047E22A
:1009400051E00E94290910929C0185E090E00E94EC
:10095000390A80919C01823029F090919601923061
:1009600008F4B3CF10929C0180919601823008F078
:1009700052C00F2EFCE3FF2EF02D40C0813019F045
:100980008330F9F03BC010929601D3018C91811114
:1009900002C0FC9233C08150F30180836091A501B5
:1009A0007091A6018091A7019091A8010AE311E03E
:1009B00021E231E047E251E00E94290910929C01B6
:1009C0001DC010929601D3018C918F5F8C3310F46F
:1009D0008C9302C0F30110826091A5017091A60171
:1009E0008091A7019091A8010AE311E021E231E092
:1009F00047E251E00E94290910929C0185E090E0B5
:100A00000E94390A80919C01823029F090919601D0
:100A1000923008F4B3CF10929C012BC085E090E097
:100A20000E94390A80919C018D7F8130F1F41092EF
:100A30009601D2018C918F5F823010F48C9302C0AA
:100A4000F20110826091A5017091A6018091A70129
:100A50009091A8010AE311E021E231E047E251E080
:100A60000E94290910929C0104C080919C0182304F
:100A700021F080919601823088F20E943502109216
:100A80009C010E94430710929C0115C16091C7010F
:100A90007091C8018091C9019091CA010AE311E0E7
:100AA00021E231E047E251E00E94290910929C01C5
:100AB00080919601823008F052C00F2EFDE0FF2E8B
:100AC000F02D40C0813019F08330F9F03BC0109216
:100AD0009601D1018C91811102C0FC9233C08150EA
:100AE000F10180836091C7017091C8018091C901B3
:100AF0009091CA010AE311E021E231E047E251E0BE
:100B00000E94290910929C011DC010929601D101EA
:100B10008C918F5F8D3010F48C9302C0F1011082A4
:100B20006091C7017091C8018091C9019091CA017B
:100B30000AE311E021E231E047E251E00E94290995
:100B400010929C0185E090E00E94390A80919C01FE
:100B5000823029F090919601923008F4B3CF109230
:100B60009C0180919601823008F056C00F2EFCE364
:100B7000FF2EF02D44C0813019F0833009F13FC0C1
:100B800010929601A8ECB1E08C91811102C0FC9208
:100B900036C08150E8ECF1E080836091C70170912C
:100BA000C8018091C9019091CA010AE311E021E2D4
:100BB00031E047E251E00E94290910929C011FC0D8
:100BC00010929601A8ECB1E08C918F5F8C3310F4F9
:100BD0008C9303C0E8ECF1E010826091C701709142
:100BE000C8018091C9019091CA010AE311E021E294
:100BF00031E047E251E00E94290910929C0185E012
:100C000090E00E94390A80919C01823029F09091F5
:100C10009601923008F4AFCF10929C012DC085E070
:100C200090E00E94390A80919C018D7F813001F50E
:100C300010929601A9ECB1E08C918F5F823010F494
:100C40008C9303C0E9ECF1E010826091C7017091D0
:100C5000C8018091C9019091CA010AE311E021E223
:100C600031E047E251E00E94290910929C0104C042
:100C700080919C01823021F080919601823078F23F
:100C80000E94350210929C010E94430710929C0121
:100C900012C0109299010E9443070DC010929C014E
:100CA00010929601809197019091980101969093EE
:100CB00098018093970180919701909198018630D7
:100CC000910529F4109298011092970108C001969D
:100CD00031F485E090E090939801809397018091A2
:100CE0009901882309F447CC80919601823008F459
:100CF000A2CD41CC10929601E8EAF1E0908181E02A
:100D000089278083882369F08FE49EE4A0E2B0E025
:100D10008093BB019093BC01A093BD01B093BE0131
:100D20000CC08FE496E4A6E4B0E08093BB019093FE
:100D3000BC01A093BD01B093BE0110929C011BCCDD
:100D40001092960110929C0116CC1092960110926E
:100D50009C0111CC10929601EAECF1E0908181E0C7
:100D600089278083882369F08FE49EE4A0E2B0E0C5
:100D70008093A9019093AA01A093AB01B093AC0119
:100D80000CC08FE496E4A6E4B0E08093A9019093B0
:100D9000AA01A093AB01B093AC0110929C01EBCBE4
:100DA00087B1806687B91092B90088E48093B80053
:100DB000089584EA8093BC00ECEBF0E08081882306
:100DC000ECF70895880F682B6093BB0084E880934C
:100DD000BC00ECEBF0E080818823ECF70895809371
:100DE000BB0084E88093BC00ECEBF0E080818823BA
:100DF000ECF7089584E88093BC00ECEBF0E0808190
:100E00008823ECF78091BB000895CF93C62F0E94F2
:100E1000D90660E088E60E94E2068C2F0E94EF0669
:100E20000E94D90661E088E60E94E2060E94FA0666
:100E300094E99093BC00CF910895209A259A239A23
:100E4000549A229A81E58CBD08952A985C988EBDAB
:100E50000DB407FEFDCF8DB58F778DBD2A9A08950D
:100E60002A985C9A8EBD0DB407FEFDCF2A9A08958C
:100E7000CF93C62F80680E9425078C2F80640E9424
:100E80002507CF910895CF93DF93C8EFD1E080E09D
:100E90000E94300721972097D1F760E070E080E052
:100EA00090E00E943807DF91CF9108952A98289802
:100EB00081E090E00E94390A289A0E9443072A9A0A
:100EC0008CE00E94250760E070E080E090E00E94E6
:100ED000380781E20E94250784E00E94250780EA06
:100EE0000E94250786E10E94250780E20E942507CF
:100EF00008950F931F93CF93DF93082F10E00052B4
:100F00001109C801880F991F880F991F080F191F11
:100F1000C0E0D0E006561F4FF801EC0FFD1F849192
:100F20000E9430072196C530D105B1F7DF91CF91EE
:100F30001F910F9108950F931F93CF93DF93082F65
:100F400010E000521109C801880F991F880F991FDE
:100F5000080F191FC0E0D0E006561F4FF801EC0F34
:100F6000FD1F849180950E9430072196C530D105E0
:100F7000A9F7DF91CF911F910F9108958F929F92C2
:100F8000AF92BF92CF92DF92EF92FF920F931F9397
:100F9000CF93DF934C016AE070E00E94600A5B012E
:100FA0006B01CC0CDD1CCC0CDD1CC601860F971F21
:100FB000C0E0D0E00F2EF8E6EF2EF0E0FF2EF02D8F
:100FC0009C0128593F4F69018701F601EC0FFD1F75
:100FD00084910E9430072196C530D105A9F726EFEC
:100FE000A5012403C001259F900D1124880E991E90
:100FF000C401880F991F880F991F880E991EC0E0A1
:10100000D0E0080D191DF801EC0FFD1F84910E941E
:1010100030072196C530D105B1F7DF91CF911F91EF
:101020000F91FF90EF90DF90CF90BF90AF909F9087
:101030008F900895CF93DF93EC01611104C08881F4
:1010400081110BC010C08881882369F021960E940D
:101050009B0789918111FBCF06C021960E947907D9
:1010600089918111FBCFDF91CF910895CF92DF92CB
:10107000EF92FF920F931F93CF93DF93EC016B01DD
:101080007A01DC010D900020E9F71197CD018C1B4E
:101090009D0BDB010D900020E9F71197A61BB70B04
:1010A000FA0101900020E9F73197E41BF50BA80F36
:1010B000B91FEA0FFB1F80E190E08E1B9F0B8C0194
:1010C00012F40F5F1F4F1595079565E070E080E003
:1010D00090E00E94380760E0CE010E941A081016C6
:1010E0001106ECF4C0E0D0E080E20E94790721967E
:1010F000C017D107C9F70CC080E20E94790721967A
:10110000C017D107C9F760E0C7010E941A080CC0D8
:1011100060E0C6010E941A08C0E0D0E0EDCF60E0B8
:10112000C6010E941A08EFCFDF91CF911F910F9156
:10113000FF90EF90DF90CF9008958F929F92AF92A3
:10114000BF92CF92DF92EF92FF920F931F93CF93B4
:10115000DF93CDB7DEB728970FB6F894DEBF0FBE8A
:10116000CDBF29833A834B836D837E838F8398879A
:1011700060E070E080E090E00E9438078D8190E0B0
:101180000E94BE078AE30E9479078E8190E00E9448
:10119000BE078AE30E9479078F8190E00E94BE0714
:1011A00080E20E9479078885882331F060E08CE333
:1011B00091E00E941A0805C060E08FE391E00E9470
:1011C0001A0862E070E080E090E00E9438078A81AF
:1011D00090E00E94BE078FE20E9479078B8190E029
:1011E0000E94BE078FE20E947907898190E00E94E9
:1011F000BE0761E070E080E490E00E943807C8011B
:101200000E94BE0760E082E491E00E941A0864E058
:1012100070E081E490E00E94380760E0C5010E9420
:101220001A08A401B601C7010E94360828960FB615
:10123000F894DEBF0FBECDBFDF91CF911F910F910C
:10124000FF90EF90DF90CF90BF90AF909F908F90E6
:101250000895BF92CF92DF92EF92FF920F931F9368
:10126000CF93DF93B62EC72ED82EEA0179010E94C4
:10127000430760E070E080E090E00E94380760E0A3
:1012800085E491E00E941A088B2D90E00E94BE0731
:101290008AE30E9479078C2D90E00E94BE0780E2CD
:1012A0000E947907DD2031F060E08CE391E00E943C
:1012B0001A0805C060E08FE391E00E941A08A801B7
:1012C000B701CE010E943608DF91CF911F910F9197
:1012D000FF90EF90DF90CF90BF900895CF93C82FED
:1012E00060E070E08FE190E00E94380761E0C1119A
:1012F00060E089E491E00E941A0861E070E087E113
:1013000090E00E94380761E0C13009F060E085E5B7
:1013100091E00E941A0862E070E085E190E00E948E
:10132000380761E0C23009F060E081E691E00E9498
:101330001A0863E070E08DE090E00E94380761E0F9
:10134000C33009F060E08DE691E00E941A0864E085
:1013500070E08DE090E00E94380761E0C43009F051
:1013600060E089E791E00E941A0865E070E08FE193
:1013700090E00E94380761E0C53009F060E085E840
:1013800091E00E941A08CF910895982F969596950E
:1013900096959E70292F220F220F920F8F70890F22
:1013A0000895CF93DF93EC0166E088E60E9405077D
:1013B0000E94C509888365E088E60E9405070E94AF
:1013C000C509898364E088E60E9405070E94C50973
:1013D0008A8363E088E60E9405070E94C5098B8323
:1013E00062E088E60E9405078F710E94C5098C8320
:1013F00061E088E60E9405070E94C5098D8360E0D0
:1014000088E60E9405070E94C5098E8362E088E68F
:101410000E94050785FB882780F98F83DF91CF9194
:10142000089582E084BD93E095BD80936E008AEFBD
:1014300087BDA99A16BC089582E08093B000E1EBC5
:10144000F0E08081876080830895219A80E880930E
:10145000800080E18093810086E891E0909387008E
:10146000809386008AE590E09093890080938800BD
:1014700008952FE02093B300B99A1092B20000971C
:1014800051F020E030E0B99BFECFB99A2F5F3F4F7B
:1014900028173907C1F70895882349F0E1E8F0E0FB
:1014A00080818560808380E8809380000895E1E8F2
:1014B000F0E080818A7F80832998109280000895CF
:1014C00097FB072E16F4009407D077FD09D00E94F1
:1014D000740A07FC05D03EF4909581959F4F0895BE
:1014E000709561957F4F0895AA1BBB1B51E107C002
:1014F000AA1FBB1FA617B70710F0A61BB70B881FA4
:10150000991F5A95A9F780959095BC01CD01089532
:10151000F999FECF92BD81BDF89A992780B50895BB
:10152000262FF999FECF92BD81BDF89A019700B49C
:10153000021639F01FBA20BD0FB6F894FA9AF99A3C
:081540000FBE0895F894FFCFDF
:101548004D454E5500524144494F00414C41524D82
:10155800203121004F464600414C41524D20322156
:1015680000454E5445520055500020202020202090
:10157800202020202020202020202000504D004125
:101588004D0020430041313A0054756E650000005B
:10159800000000000050726573657473000000005D
:1015A800005365742054696D65000000005365742C
:1015B80020416C61726D20310053657420416C616B
:1015C800726D2032004261636B0000000000000071
:0215D800000011
:00000001FF
