:100000000C9433010C9450010C9450010C94500149
:100010000C9450010C9450010C9450010C9450011C
:100020000C9450010C9450010C9450010C9450010C
:100030000C9450010C9450010C9456010C945001F6
:100040000C9450010C9450010C9450010C945001EC
:100050000C9450010C9450010C9450010C945001DC
:100060000C9450010C9450013E4141413E00427FAE
:10007000400042615149462141454B311814127FDD
:100080001027454545393C4A494930017109050366
:100090003649494936064949291E0000000000003A
:1000A000002F00000007000700147F147F14242A8B
:1000B0007F2A12C4C810264636495522500005032F
:1000C0000000001C2241000041221C0014083E08D0
:1000D0001408083E080800005030001010101010DE
:1000E000006060000020100804023E4141413E00D3
:1000F000427F400042615149462141454B3118142D
:10010000127F1027454545393C4A4949300171095C
:1001100005033649494936064949291E0036360045
:100120000000563600000814224100141414141460
:1001300000412214080201510906324959513E7EFC
:100140001111117E7F494949363E414141227F418B
:1001500041221C7F494949417F090909013E414922
:10016000497A7F0808087F00417F41002040413FD5
:10017000017F081422417F404040407F020C027FF3
:100180007F0408107F3E4141413E7F090909063E38
:100190004151215E7F0919294646494949310101EA
:1001A0007F01013F4040403F1F2040201F3F40381B
:1001B000403F6314081463070870080761514945FC
:1001C00043007F414100552A552A550041417F0097
:1001D00004020102044040404040000102040020AB
:1001E000545454787F484444383844444420384474
:1001F00044487F3854545418087E0901020C525266
:10020000523E7F0804047800447D40002040443D75
:10021000007F1028440000417F40007C04180478CF
:100220007C0804047838444444387C1414140808C6
:100230001414187C7C080404084854545420043FC7
:100240004440203C4040207C1C2040201C3C40304E
:10025000403C44281028440C5050503C4464544CBA
:1002600044000609090611241FBECFEFD8E0DEBF07
:10027000CDBF11E0A0E0B1E0E4E1F4E102C00590FF
:100280000D92A239B107D9F721E0A2E9B1E001C08E
:100290001D92AA3CB207E1F70E9455020C94080A8D
:1002A0000C940000309A319A329A08951F920F925E
:1002B0000FB60F9211242F933F934F935F938F9319
:1002C0009F9396B181E0982726B126952170282723
:1002D00036B132FB332730F93827492F417090FF70
:1002E0001CC0809194019091950101969093950185
:1002F000809394018233910539F481E090E09093EA
:1003000093018093920109C08C3B924031F484E0C8
:1003100090E090939301809392012223E1F08091E9
:100320009401909195010196909395018093940189
:100330008233910539F482E090E0909393018093A9
:10034000920109C08C3B924031F485E090E090939B
:100350009301809392013323E9F08091940190916D
:1003600095010196909395018093940182339105B4
:1003700039F483E090E0909393018093920122C03E
:100380008C3B924039F486E090E090939301809307
:10039000920107C080919201909193018430910560
:1003A0008CF0411121C021111FC031111DC080935B
:1003B0009B0110929301109292011092950110925C
:1003C000940112C0009781F041110EC021110CC0A0
:1003D00031110AC080939B011092930110929201F7
:1003E00010929501109294019F918F915F914F917E
:1003F0003F912F910F900FBE0F901F90189587E09F
:1004000090E00E94EE098093A40186E090E00E94B3
:10041000EE098093A50185E090E00E94EE098093AB
:10042000A60183E090E00E94EE098093C60182E07D
:1004300090E00E94EE098093C70181E090E00E9465
:10044000EE098093C80108956091A40187E090E0CF
:100450000E94F6096091A50186E090E00E94F609ED
:100460006091A60185E090E00E94F6096091A701E5
:1004700084E090E00E94F6096091C60183E090E07C
:100480000E94F6096091C70182E090E00E94F6099F
:100490006091C80181E090E00E94F6096091C90175
:1004A00080E090E00E94F6090895F8940E94770990
:1004B0000E948B090E9482090E9436060E94520106
:1004C0000E9483060E94BC0678940E94FF018091DE
:1004D000A7018823A9F08FE49EE4A0E2B0E0809316
:1004E000BA019093BB01A093BC01B093BD0180936E
:1004F000A8019093A901A093AA01B093AB0114C0E5
:100500008FE496E4A6E4B0E08093BA019093BB0137
:10051000A093BC01B093BD018093A8019093A90161
:10052000A093AA01B093AB010F2EF6EC2F2EF1E0B1
:100530003F2EF02D0F2EF4EA6F2EF1E07F2EF02DDE
:10054000C0EAD1E00F2EF1EA4F2EF1E05F2EF02D40
:100550008CE991E00E9437090F2EF8EA8F2EF1E026
:100560009F2EF02D0F2EFAEBAF2EF1E0BF2EF02DC7
:100570000F2EF0E0CF2EF1E0DF2EF02D0F2EF5E064
:10058000EF2EF1E0FF2EF02D05E110E020919C010F
:1005900030919D0140919E0150919F016091A00179
:1005A0007091A1018091A2019091A3010E94030882
:1005B000D3019C91888198136AC0E5EAF1E08081BB
:1005C000D2019C91891363C0E6EAF1E02081A3EA9D
:1005D000B1E09C9129135BC0E7EAF1E09081992397
:1005E00009F455C090919A01891709F450C080937D
:1005F0009A0181E00E94B2090E94A90660E070E0C1
:1006000080E090E00E949E0660E08BE091E00E9416
:1006100080074AE351E0BA0184E191E00E949C071F
:1006200010929B01A2EAB1E02C9130E0C9010F9633
:100630008D3391050CF0CC979093C5018093C40144
:1006400020919B0121111EC0E2EAF1E0208130E0FF
:1006500082179307B9F08CE991E00E94370985E091
:1006600090E00E949F0980919B0181110BC0A2EA3A
:10067000B1E02C9130E08091C4019091C501281720
:10068000390749F780E00E94B20910929B01F101FD
:100690009081888198136BC0A7ECB1E08C91F20136
:1006A0009081891364C0A8ECB1E02C91E3EAF1E0F9
:1006B000908129135CC0A9ECB1E09C91992309F4C5
:1006C00056C090919901891709F451C080939901FE
:1006D00081E00E94B2090E94A90660E070E080E01B
:1006E00090E00E949E0660E088E191E00E94800711
:1006F0004AE351E0BA0184E191E00E949C07109224
:100700009B01E2EAF1E0208130E0C9010F968D33D0
:1007100091050CF0CC979093C5018093C401209172
:100720009B0121111EC0A2EAB1E02C9130E082179A
:100730009307B9F08CE991E00E94370985E090E0D9
:100740000E949F0980919B0181110BC0E2EAF1E0B8
:10075000208130E08091C4019091C50128173907AC
:1007600049F780E00E94B20910929B01F1CE80917E
:100770009B01833009F432C2863009F453C28230BF
:1007800009F0E6CE10929B0181E0809398011092CF
:100790009701109296010E94A906C6E9D1E00F2E9A
:1007A000F4EA6F2EF1E07F2EF02D0F2EF5EACF2E1A
:1007B000F1E0DF2EF02D0F2EF6EA4F2EF1E05F2E46
:1007C000F02D07C288810E94D40880919B0182305D
:1007D00091F0833009F4DEC1813009F0E6C1109256
:1007E0009B018091960190919701019790939701B9
:1007F00080939601DAC110929B01809196019091AD
:1008000097018430910509F4E1C08530910509F420
:10081000BDC1039709F0BEC16091A4017091A5010B
:100820008091A6019091A7010AE311E021E231E055
:1008300047E251E00E948F0810929B010F2EFDE0CD
:10084000FF2EF02D3CC0813019F08330E9F037C025
:10085000D3018C91811102C0FC9231C08150F3010F
:1008600080836091A4017091A5018091A60190916F
:10087000A7010AE311E021E231E047E251E00E94E2
:100880008F0810929B011BC0D3018C918F5F8D301C
:1008900010F48C9302C0F30110826091A401709156
:1008A000A5018091A6019091A7010AE311E021E240
:1008B00031E047E251E00E948F0810929B0185E0F1
:1008C00090E00E949F0980919B01823009F0BBCF8C
:1008D00010929B010F2EFCE3FF2EF02D3CC08130C7
:1008E00019F08330E9F037C0D6018C91811102C034
:1008F000FC9231C08150F60180836091A401709117
:10090000A5018091A6019091A7010AE311E021E2DF
:1009100031E047E251E00E948F0810929B011BC01A
:10092000D6018C918F5F8C3310F48C9302C0F6014A
:1009300010826091A4017091A5018091A60190910F
:10094000A7010AE311E021E231E047E251E00E9411
:100950008F0810929B0185E090E00E949F09809192
:100960009B01823009F0BBCF10929B0185E090E0A3
:100970000E949F0980919B018D7F8130E1F4D2011B
:100980008C918F5F823010F48C9302C0F201108240
:100990006091A4017091A5018091A6019091A70199
:1009A0000AE311E021E231E047E251E00E948F08C2
:1009B00010929B01DBCF80919B018230B9F60E949F
:1009C000240210929B010E94A906E4C06091C60116
:1009D0007091C7018091C8019091C9010AE311E0AB
:1009E00021E231E047E251E00E948F0810929B0122
:1009F0000F2EFDE0FF2EF02D3CC0813019F083302A
:100A0000E9F037C0D1018C91811102C0FC9231C054
:100A10008150F10180836091C6017091C70180917E
:100A2000C8019091C9010AE311E021E231E047E2F7
:100A300051E00E948F0810929B011BC0D1018C9144
:100A40008F5F8D3010F48C9302C0F10110826091A1
:100A5000C6017091C7018091C8019091C9010AE354
:100A600011E021E231E047E251E00E948F0810924C
:100A70009B0185E090E00E949F0980919B0182305C
:100A800009F0BBCF10929B010F2EFCE3FF2EF02D3F
:100A900040C0813019F08330F9F03BC0A7ECB1E0E1
:100AA0008C91811102C0FC9234C08150E7ECF1E0DE
:100AB00080836091C6017091C7018091C8019091B7
:100AC000C9010AE311E021E231E047E251E00E946E
:100AD0008F0810929B011DC0A7ECB1E08C918F5F35
:100AE0008C3310F48C9303C0E7ECF1E0108260913A
:100AF000C6017091C7018091C8019091C9010AE3B4
:100B000011E021E231E047E251E00E948F081092AB
:100B10009B0185E090E00E949F0980919B018230BB
:100B200009F0B7CF10929B0185E090E00E949F09E9
:100B300080919B018D7F8130F1F4A8ECB1E08C9124
:100B40008F5F823010F48C9303C0E8ECF1E01082E8
:100B50006091C6017091C7018091C8019091C9014F
:100B60000AE311E021E231E047E251E00E948F0800
:100B700010929B01D9CF80919B018230A9F60E94EF
:100B8000240210929B010E94A90604C010929801B1
:100B90000E94A90610929B01809196019091970165
:100BA0000196909397018093960180919601909180
:100BB00097018630910529F41092970110929601C1
:100BC00008C0019631F485E090E0909397018093FE
:100BD0009601809198018111F5CDACCCE7EAF1E066
:100BE000908181E089278083882369F08FE49EE4E7
:100BF000A0E2B0E08093BA019093BB01A093BC0146
:100C0000B093BD010CC08FE496E4A6E4B0E08093FD
:100C1000BA019093BB01A093BC01B093BD011092A7
:100C20009B0188CCE9ECF1E0908181E08927808309
:100C3000882369F08FE49EE4A0E2B0E08093A801ED
:100C40009093A901A093AA01B093AB010CC08FE4CB
:100C500096E4A6E4B0E08093A8019093A901A09344
:100C6000AA01B093AB0110929B0164CC87B180665E
:100C700087B91092B90088E48093B800089584EA97
:100C80008093BC00ECEBF0E080818823ECF70895C2
:100C9000880F682B6093BB0084E88093BC00ECEB6A
:100CA000F0E080818823ECF708958093BB0084E80E
:100CB0008093BC00ECEBF0E080818823ECF7089592
:100CC00084E88093BC00ECEBF0E080818823ECF7B3
:100CD0008091BB000895CF93C62F0E943F0660E02D
:100CE00088E60E9448068C2F0E9455060E943F0607
:100CF00061E088E60E9448060E94600694E99093AD
:100D0000BC00CF910895209A259A239A549A229A4A
:100D100081E58CBD08952A985C988EBD0DB407FEC0
:100D2000FDCF8DB58F778DBD2A9A08952A985C9A4C
:100D30008EBD0DB407FEFDCF2A9A0895CF93C62F1E
:100D400080680E948B068C2F80640E948B06CF9156
:100D50000895CF93DF93C8EFD1E080E00E9496061C
:100D600021972097D1F760E070E080E090E00E944A
:100D70009E06DF91CF9108952A98289881E090E00F
:100D80000E949F09289A0E94A9062A9A8CE00E9434
:100D90008B0660E070E080E090E00E949E0681E2B9
:100DA0000E948B0684E00E948B0680EA0E948B06DC
:100DB00086E10E948B0680E20E948B0608950F93C5
:100DC0001F93CF93DF93082F10E000521109C80141
:100DD000880F991F880F991F080F191FC0E0D0E0D6
:100DE00006561F4FF801EC0FFD1F84910E949606D6
:100DF0002196C530D105B1F7DF91CF911F910F91A9
:100E000008950F931F93CF93DF93082F10E00052A4
:100E10001109C801880F991F880F991F080F191F02
:100E2000C0E0D0E006561F4FF801EC0FFD1F849183
:100E300080950E9496062196C530D105A9F7DF91CD
:100E4000CF911F910F9108958F929F92AF92BF9271
:100E5000CF92DF92EF92FF920F931F93CF93DF9386
:100E60004C016AE070E00E94C6095B016B01CC0C8A
:100E7000DD1CCC0CDD1CC601860F971FC0E0D0E046
:100E80000F2EF8E6EF2EF0E0FF2EF02D9C012859F2
:100E90003F4F69018701F601EC0FFD1F84910E940D
:100EA00096062196C530D105A9F726EFA5012403A2
:100EB000C001259F900D1124880E991EC401880F32
:100EC000991F880F991F880E991EC0E0D0E0080D69
:100ED000191DF801EC0FFD1F84910E9496062196C2
:100EE000C530D105B1F7DF91CF911F910F91FF90E0
:100EF000EF90DF90CF90BF90AF909F908F9008952C
:100F0000CF93DF93EC01611104C0888181110BC084
:100F100010C08881882369F021960E940107899179
:100F20008111FBCF06C021960E94DF0689918111B5
:100F3000FBCFDF91CF910895CF92DF92EF92FF9296
:100F40000F931F93CF93DF93EC016B017A01DC01C8
:100F50000D900020E9F71197CD018C1B9D0BDB0153
:100F60000D900020E9F71197A61BB70BFA0101902D
:100F70000020E9F73197E41BF50BA80FB91FEA0F22
:100F8000FB1F80E190E08E1B9F0B8C0112F40F5F22
:100F90001F4F1595079565E070E080E090E00E9496
:100FA0009E0660E0CE010E94800710161106ECF448
:100FB000C0E0D0E080E20E94DF062196C017D10792
:100FC000C9F70CC080E20E94DF062196C017D10746
:100FD000C9F760E0C7010E9480070CC060E0C6014D
:100FE0000E948007C0E0D0E0EDCF60E0C6010E9423
:100FF0008007EFCFDF91CF911F910F91FF90EF907E
:10100000DF90CF9008958F929F92AF92BF92CF9230
:10101000DF92EF92FF920F931F93CF93DF93CDB7A1
:10102000DEB728970FB6F894DEBF0FBECDBF298379
:101030003A834B836D837E838F83988760E070E073
:1010400080E090E00E949E068D8190E00E9424073F
:101050008AE30E94DF068E8190E00E9424078AE3E3
:101060000E94DF068F8190E00E94240780E20E94A8
:10107000DF068885882331F060E08CE391E00E94F0
:10108000800705C060E08FE391E00E94800762E086
:1010900070E080E090E00E949E068A8190E00E94CD
:1010A00024078FE20E94DF068B8190E00E942407D4
:1010B0008FE20E94DF06898190E00E94240761E0B0
:1010C00070E080E490E00E949E06C8010E94240720
:1010D00060E082E491E00E94800764E070E081E4D7
:1010E00090E00E949E0660E0C5010E948007A40176
:1010F000B601C7010E949C0728960FB6F894DEBF80
:101100000FBECDBFDF91CF911F910F91FF90EF9058
:10111000DF90CF90BF90AF909F908F900895BF9237
:10112000CF92DF92EF92FF920F931F93CF93DF93B3
:10113000B62EC72ED82EEA0179010E94A90660E0DA
:1011400070E080E090E00E949E0660E085E491E01F
:101150000E9480078B2D90E00E9424078AE30E9462
:10116000DF068C2D90E00E94240780E20E94DF06BB
:10117000DD2031F060E08CE391E00E94800705C043
:1011800060E08FE391E00E948007A801B701CE01E3
:101190000E949C07DF91CF911F910F91FF90EF90DC
:1011A000DF90CF90BF900895CF93C82F60E070E09C
:1011B0008FE190E00E949E0661E0C11160E089E449
:1011C00091E00E94800761E070E087E190E00E947A
:1011D0009E0661E0C13009F060E085E591E00E9483
:1011E000800762E070E085E190E00E949E0661E089
:1011F000C23009F060E081E691E00E94800763E080
:1012000070E08DE090E00E949E0661E0C33009F03E
:1012100060E08DE691E00E94800764E070E08DE080
:1012200090E00E949E0661E0C43009F060E089E72A
:1012300091E00E94800765E070E08FE190E00E94FD
:101240009E0661E0C53009F060E085E891E00E940B
:101250008007CF910895982F9695969596959E70B4
:10126000292F220F220F920F8F70890F0895CF938D
:10127000DF93EC0166E088E60E946B060E942B0972
:10128000888365E088E60E946B060E942B098983AB
:1012900064E088E60E946B060E942B098A8363E063
:1012A00088E60E946B060E942B098B8362E088E629
:1012B0000E946B068F710E942B098C8361E088E687
:1012C0000E946B060E942B098D8360E088E60E94D5
:1012D0006B060E942B098E8362E088E60E946B06F3
:1012E00085FB882780F98F83DF91CF91089582E075
:1012F00084BD93E095BD80936E008AEF87BDA99A67
:1013000016BC089582E08093B000E1EBF0E08081AC
:10131000876080830895219A80E88093800080E12F
:101320008093810086E891E0909387008093860007
:101330008AE590E0909389008093880008952FE0DB
:101340002093B300B99A1092B200009751F020E0B8
:1013500030E0B99BFECFB99A2F5F3F4F281739076E
:10136000C1F70895882349F0E1E8F0E080818560C5
:10137000808380E8809380000895E1E8F0E0808138
:101380008A7F8083299810928000089597FB072E0A
:1013900016F4009407D077FD09D00E94DA0907FC03
:1013A00005D03EF4909581959F4F08957095619575
:1013B0007F4F0895AA1BBB1B51E107C0AA1FBB1F8B
:1013C000A617B70710F0A61BB70B881F991F5A95D1
:1013D000A9F780959095BC01CD010895F999FECFAC
:1013E00092BD81BDF89A992780B50895262FF99965
:1013F000FECF92BD81BDF89A019700B4021639F074
:101400001FBA20BD0FB6F894FA9AF99A0FBE089544
:04141000F894FFCF7E
:101414004D454E5500524144494F00414C41524DB7
:10142400203121004F464600414C41524D2032218B
:1014340000454E54455200555000202020202020C5
:10144400202020202020202020202000504D00415A
:101454004D0020430041313A0054756E6500000090
:101464000000000000507265736574730000000092
:10147400005365742054696D650000000053657461
:1014840020416C61726D20310053657420416C61A0
:10149400726D2032004261636B00000000000000A6
:0214A400000046
:00000001FF
