:100000000C94A6010C94C3010C94C3010C94C3017D
:100010000C94C3010C94C3010C945F070C94C301AE
:100020000C94C3010C94C3010C94C3010C94C30140
:100030000C94C3010C94C3010C94A1060C94C3014D
:100040000C94C3010C94C3010C94C3010C94C30120
:100050000C94C3010C9470070C94C3010C94C3015D
:100060000C94C3010C94C30100C0C0C00000393916
:100070003900F0FCFE060206FEFCF000071F3F30D0
:1000800020303F1F070010080CFCFEFE000000009F
:100090002020203F3F3F202020000C0E0602028639
:1000A000FE7C380030383C363331303038000C0EAE
:1000B000868282C6FE7C38001838302020313F1FEF
:1000C0000E0000C0201804FEFEFE00000302020223
:1000D000223F3F3F220300FE7E4646C6C687000001
:1000E0001838302020303F1F0F00C0F0F8BC4CC63D
:1000F000C28200000F1F3F3020303F1F0F000E064E
:10010000060606C6F63E0E000000303C0F03000057
:100110000000387CFEC682C6FE7C38000E1F3F31D0
:1001200020313F1F0E0078FCFE860286FEFCF800A0
:1001300000002121311C1F0F0300000000000000FF
:1001400000000000000000000000000000003E4130
:1001500041413E00427F40004261514946214145B4
:100160004B311814127F1027454545393C4A4949FF
:100170003001710905033649494936064949291EA6
:10018000000000000000002F00000007000700141E
:100190007F147F14242A7F2A12C4C81026463649A9
:1001A0005522500005030000001C2241000041229E
:1001B0001C0014083E081408083E080800005030CF
:1001C00000101010101000606000002010080402E1
:1001D0003E4141413E00427F40004261514946213B
:1001E00041454B311814127F1027454545393C4A8B
:1001F00049493001710905033649494936064949DB
:10020000291E003636000000563600000814224130
:100210000014141414140041221408020151090698
:10022000324959513E7E1111117E7F494949363E6E
:10023000414141227F4141221C7F494949417F0977
:100240000909013E4149497A7F0808087F00417F3A
:1002500041002040413F017F081422417F4040403F
:10026000407F020C027F7F0408107F3E4141413EE7
:100270007F090909063E4151215E7F091929464639
:100280004949493101017F01013F4040403F1F2062
:1002900040201F3F4038403F631408146307087034
:1002A00008076151494543007F414100552A552ABD
:1002B000550041417F00040201020440404040409B
:1002C000000102040020545454787F4844443838D4
:1002D00044444420384444487F3854545418087ED9
:1002E0000901020C5252523E7F0804047800447DFA
:1002F00040002040443D007F1028440000417F40E2
:10030000007C041804787C08040478384444443899
:100310007C14141408081414187C7C08040408487D
:1003200054545420043F4440203C4040207C1C2036
:1003300040201C3C4030403C44281028440C505085
:10034000503C4464544C44000609090611241FBE65
:10035000CFEFD8E0DEBFCDBF11E0A0E0B1E0E0E834
:10036000FAE102C005900D92A839B107D9F721E052
:10037000A8E9B1E001C01D92A73DB207E1F70E94D4
:1003800038020C943E0D0C940000509851985598EA
:1003900056985798589A599A5D9A5E9A5F9A3B9ADE
:1003A0003E9A439A469A089587E090E00E94240D71
:1003B0008093B30186E090E00E94240D8093B40105
:1003C00085E090E00E94240D8093B50184E090E0E8
:1003D0000E94240D8093B60183E090E00E94240DDA
:1003E0008093CF0182E090E00E94240D8093D001A1
:1003F00081E090E00E94240D8093D10180E090E0A4
:100400000E94240D8093D20108956091B30187E08A
:1004100090E00E942C0D6091B40186E090E00E9473
:100420002C0D6091B50185E090E00E942C0D60914B
:10043000CF0183E090E00E942C0D6091D00182E01A
:1004400090E00E942C0D6091D10181E090E00E942B
:100450002C0D089588E10FB6F894809360001092F7
:1004600060000FBEE0E6F0E0808380E680830895C0
:10047000F8940E94520C0E94660C0E945D0C0E942F
:100480002A020E947A070E94C5010E9483070E94E7
:10049000BC0778940E94D401E6EBF1E08081817082
:1004A0008083E2EDF1E020812170208391E0909340
:1004B000B70192E09093D301882369F08FE49EE422
:1004C000A0E2B0E08093C5019093C601A093C7015C
:1004D000B093C8010CC08FE496E4A6E4B0E080932A
:1004E000C5019093C601A093C701B093C801222310
:1004F00069F08FE49EE4A0E2B0E08093BB019093AA
:10050000BC01A093BD01B093BE010CC08FE496E482
:10051000A6E4B0E08093BB019093BC01A093BD0121
:10052000B093BE01CFECD1E00F2EF0ED6F2EF1E0D5
:100530007F2EF02D0F2EF1ED4F2EF1E05F2EF02DDE
:100540000F2EF5EB2F2EF1E03F2EF02D8091A20122
:10055000833009F4C6C228F4813061F0823069F03A
:100560001CC3853009F4EBC208F4E6C2863009F4F6
:10057000E9C213C31092A201E9CF1092A20181E057
:1005800080939F0110929E0110929D010E94A907E5
:100590000F2EFDE9EF2EF1E0FF2EF02D0F2EF4EBE4
:1005A000AF2EF1E0BF2EF02D0F2EF3EBCF2EF1E0AA
:1005B000DF2EF02D8BC2D7018C910E94B20B80915F
:1005C000A201823091F0833009F461C2813009F0D8
:1005D00069C21092A20180919D0190919E010197A4
:1005E00090939E0180939D015DC21092A201809123
:1005F0009D0190919E018430910509F426C18530BA
:10060000910509F43FC2039709F04CC201E0209123
:10061000B3013091B4014091B5015091B6016091A0
:10062000B7017091B8018091B9019091BA010E940F
:10063000C70A1092A20180919C018F3008F04EC031
:100640001DE03FC0813019F08330F1F03AC0F6016F
:100650008081811102C0108334C08150282F808393
:1006600001E03091B4014091B5015091B601609123
:10067000B7017091B8018091B9019091BA010E94BF
:10068000C70A1092A2011DC0F60180818F5F8D30D4
:1006900010F4808301C0108201E02091B3013091F9
:1006A000B4014091B5015091B6016091B7017091CC
:1006B000B8018091B9019091BA010E94C70A1092C5
:1006C000A20185E090E00E947A0C8091A201823024
:1006D00029F090919C019F3008F4B4CF1092A201B0
:1006E00000E02091B3013091B4014091B5015091E7
:1006F000B6016091B7017091B8018091B9019091F4
:10070000BA010E94C70A8091A201823009F452C046
:1007100090919C019F3008F04DC01CE3813019F08E
:100720008330F1F03AC0F5018081811102C010835D
:1007300034C08150382F808300E02091B301409174
:10074000B5015091B6016091B7017091B8018091E7
:10075000B9019091BA010E94C70A1092A2011DC06E
:10076000F50180818F5F8C3310F4808301C010828B
:1007700000E02091B3013091B4014091B501509156
:10078000B6016091B7017091B8018091B901909163
:10079000BA010E94C70A1092A20185E090E00E946F
:1007A0007A0C8091A201823029F090919C019F30B7
:1007B00008F4B4CF1092A20102E02091B30130916D
:1007C000B4014091B5015091B6016091B7017091AB
:1007D000B8018091B9019091BA010E94C70A26C060
:1007E00085E090E00E947A0C8091A2018D7F81309B
:1007F000E9F4F10180818F5F823010F4808301C0C1
:10080000108202E02091B3013091B4014091B50112
:100810005091B6016091B7017091B8018091B90112
:100820009091BA010E94C70A1092A2018091A20180
:10083000823021F080919C018F3090F20E9405025D
:100840001092A2010E94A9072DC101E02091CF01C1
:100850003091D0014091D1015091D2016091D301EA
:100860007091D4018091D5019091D6010E94C70A60
:100870001092A20180919C018F3008F04CC01DE0C5
:100880003DC0813019F08330E9F038C08881811192
:1008900002C0188333C08150282F888301E0309133
:1008A000D0014091D1015091D2016091D30170915A
:1008B000D4018091D5019091D6010E94C70A10926F
:1008C000A2011CC088818F5F8D3010F4888301C025
:1008D000188201E02091CF013091D0014091D101E7
:1008E0005091D2016091D3017091D4018091D501D2
:1008F0009091D6010E94C70A1092A20185E090E073
:100900000E947A0C8091A201823029F090919C0182
:100910009F3008F4B6CF1092A20100E02091CF01E1
:100920003091D0014091D1015091D2016091D30119
:100930007091D4018091D5019091D6010E94C70A8F
:100940008091A201823009F452C090919C019F30A5
:1009500008F04DC01CE3813019F08330F1F03AC04B
:10096000F3018081811102C0108334C08150382F7F
:10097000808300E02091CF014091D1015091D201BC
:100980006091D3017091D4018091D5019091D601ED
:100990000E94C70A1092A2011DC0F30180818F5FDF
:1009A0008C3310F4808301C0108200E02091CF01CD
:1009B0003091D0014091D1015091D2016091D30189
:1009C0007091D4018091D5019091D6010E94C70AFF
:1009D0001092A20185E090E00E947A0C8091A20121
:1009E000823029F090919C019F3008F4B4CF10928E
:1009F000A20102E02091CF013091D0014091D101BC
:100A00005091D2016091D3017091D4018091D501B0
:100A10009091D6010E94C70A26C085E090E00E940E
:100A20007A0C8091A2018D7F8130E9F4F2018081FE
:100A30008F5F823010F4808301C0108202E0209129
:100A4000CF013091D0014091D1015091D2016091FC
:100A5000D3017091D4018091D5019091D6010E946B
:100A6000C70A1092A2018091A201823021F08091E8
:100A70009C018F3090F20E9405021092A2010E9408
:100A8000A90710C010929F010E94A9070BC01092E5
:100A9000A20180919D0190919E01019690939E01EB
:100AA00080939D0180919D0190919E0186309105DA
:100AB00029F410929E0110929D0108C0019631F414
:100AC00085E090E090939E0180939D0180919F012D
:100AD000882309F43BCD80919C018F3008F46BCDC5
:100AE00035CD1092A20106EB11E0F801608181E0A2
:100AF0006827608384E090E00E942C0DD8018C91DF
:100B0000882369F08FE49EE4A0E2B0E08093C50101
:100B10009093C601A093C701B093C80117CD8FE48D
:100B200096E4A6E4B0E08093C5019093C601A0933B
:100B3000C701B093C8010ACD1092A20107CD10924F
:100B4000A20104CD1092A20102ED11E0D8016C9136
:100B500081E068276C9380E090E00E942C0DF80102
:100B60008081882369F08FE49EE4A0E2B0E0809366
:100B7000BB019093BC01A093BD01B093BE01E6CC34
:100B80008FE496E4A6E4B0E08093BB019093BC01AF
:100B9000A093BD01B093BE01D9CC80919C018F3050
:100BA00020F010929C010E94A9078BEA91E00E941C
:100BB000150C0F2EFBEB8F2EF1E09F2EF02D0F2E3C
:100BC000F5ECAF2EF1E0BF2EF02D0F2EF0E0CF2E82
:100BD000F1E0DF2EF02D0F2EF5E0EF2EF1E0FF2EED
:100BE000F02D05E110E02091AB013091AC01409176
:100BF000AD015091AE016091AF017091B001809153
:100C0000B1019091B2010E943B0A9091B301809191
:100C1000AF01981346C08091B4019091B00189133F
:100C200040C0D1012C919091B20129133AC090910A
:100C3000B6019923B1F19091A101891791F18093A7
:100C4000A10181E00E948D0C0E94A90760E070E084
:100C500080E090E00E949E0760E08BE091E00E94BF
:100C6000B80941E351E0BA0184E191E00E94D4095E
:100C70001092A20110929C018BEA91E00E94150C47
:100C800085E090E00E947A0C8091A201811104C05D
:100C900080919C01833080F380E00E948D0C109243
:100CA000A20198818091AF01981350CCF30180810B
:100CB0009091B00189134ACCD2012C919091B2014C
:100CC000291344CC9091D201992309F43FCC9091FF
:100CD000A001891709F43ACC8093A00181E00E9419
:100CE0008D0C0E94A90760E070E080E090E00E9417
:100CF0009E0760E088E191E00E94B80941E351E07D
:100D0000BA0184E191E00E94D4091092A20180917D
:100D10009C01833080F48BEA91E00E94150C85E001
:100D200090E00E947A0C8091A201811104C0809110
:100D30009C01833080F380E00E948D0C1092A20110
:100D400005CC1F920F920FB60F9211242F933F9351
:100D50004F935F936F937F938F939F93EF9379B1AB
:100D600061E07627E9B1E695E6278E2F817090E065
:100D7000E9B1E295E695E7706E27262F217030E005
:100D8000472F417050E070FF1DC060919A01709133
:100D90009B016F5F7F4F70939B0160939A01623359
:100DA000710539F461E070E07093990160939801E6
:100DB00009C06C3B724031F464E070E070939901BB
:100DC000609398010097E9F060919A0170919B01FE
:100DD0006F5F7F4F70939B0160939A01623371053F
:100DE00039F462E070E0709399016093980109C052
:100DF0006C3B724031F465E070E070939901609350
:100E0000980121153105F1F060919A0170919B01D3
:100E10006F5F7F4F70939B0160939A0162337105FE
:100E200039F463E070E0709399016093980124C0F5
:100E30006C3B724039F466E070E070939901609306
:100E4000980107C060919801709199016430710513
:100E50009CF0452B31F5892B21F5232B11F560935F
:100E6000A201109299011092980110929B01109288
:100E70009A0110929C0115C06115710591F0452BE6
:100E800081F4892B71F4232B61F46093A2011092F9
:100E900099011092980110929B0110929A01109260
:100EA0009C01EF919F918F917F916F915F914F91F5
:100EB0003F912F910F900FBE0F901F9018951F928A
:100EC0000F920FB60F9211248F9380919C018F5F28
:100ED00080939C018F910F900FBE0F901F901895DB
:100EE0001F920F920FB60F9211240F900FBE0F900A
:100EF0001F90189587B1806687B91092B90088E471
:100F00008093B8000895209A259A239A549A229A99
:100F100081E58CBD08952A985C988EBD0DB407FEBE
:100F2000FDCF8DB58F778DBD2A9A08952A985C9A4A
:100F30008EBD0DB407FEFDCF2A9A0895CF93C62F1C
:100F400080680E948B078C2F80640E948B07CF9152
:100F50000895CF93DF93C8EFD1E080E00E94960719
:100F600021972097D1F760E070E080E090E00E9448
:100F70009E07DF91CF9108952A98289881E090E00C
:100F80000E947A0C289A0E94A9072A9A8CE00E9453
:100F90008B0760E070E080E090E00E949E0781E2B5
:100FA0000E948B0784E00E948B0780EA0E948B07D7
:100FB00086E10E948B0780E20E948B07089580647F
:100FC0000E948B0708950F931F93CF93DF93082FF1
:100FD00010E000521109C801880F991F880F991F4E
:100FE000080F191FC0E0D0E000581E4FF801EC0FA9
:100FF000FD1F84910E9496072196C530D105B1F757
:10100000DF91CF911F910F9108950F931F93CF936D
:10101000DF93082F10E000521109C801880F991FB3
:10102000880F991F080F191FC0E0D0E000581E4F0D
:10103000F801EC0FFD1F849180950E949607219680
:10104000C530D105A9F7DF91CF911F910F91089578
:101050002F923F924F925F926F927F928F929F92C8
:10106000AF92BF92CF92DF92EF92FF920F931F93B6
:10107000CF93DF9300D01F92CDB7DEB7322E24E19D
:10108000289F5001299FB00C11244501C12CD12C5F
:10109000642E712C462E512C262C7982B601660DB9
:1010A000771DC2010E949E071A821B82C5018E58BD
:1010B0009F4F7C0184010E581F4F332049F0EA8175
:1010C000FB81E00FF11F849180950E94960707C075
:1010D000EA81FB81EE0DFF1D84910E949607EA8153
:1010E000FB813196FB83EA833A9739F7FFEFCF1AFA
:1010F000DF0A8AE0880E911C9AE0A90EB11CE2E09A
:10110000CE16D10449F6822D99810E94DF070F90F7
:101110000F900F90DF91CF911F910F91FF90EF9063
:10112000DF90CF90BF90AF909F908F907F906F9007
:101130005F904F903F902F9008958F929F92AF9223
:10114000BF92CF92DF92EF92FF920F931F93CF93B4
:10115000DF934C016AE070E00E94FC0C5B016B01C4
:10116000CC0CDD1CCC0CDD1CC601860F971FC0E02B
:10117000D0E00F2EFEE4EF2EF1E0FF2EF02D9C01CB
:10118000225B3E4F69018701F601EC0FFD1F849140
:101190000E9496072196C530D105A9F726EFA50133
:1011A0002403C001259F900D1124880E991EC401AF
:1011B000880F991F880F991F880E991EC0E0D0E0F4
:1011C000080D191DF801EC0FFD1F84910E94960770
:1011D0002196C530D105B1F7DF91CF911F910F91C5
:1011E000FF90EF90DF90CF90BF90AF909F908F9047
:1011F0000895BF92CF92DF92EF92FF920F931F93C9
:10120000CF93DF93D62EC72E142FB52E6AE070E051
:101210000E94FC0CEB017C01209769F5222359F117
:10122000642F7B2D8D2D9C2D0E949E0720E0412F49
:101230006D2D8AE090E00E942808002371F0612F54
:101240007B2D8D2D9C2D0E949E076AE06D0D21E067
:10125000412FC7010E94280843C0612F7B2D8D2D8F
:101260009C2D0E949E076AE06D0D20E0412FC70172
:101270000E94280835C00023D1F0612F7B2D8D2DD1
:101280009C2D0E949E0721E0412F6D2DCE010E94D2
:101290002808612F7B2D8D2D9C2D0E949E076AE0D2
:1012A0006D0D21E0412FC7010E94280819C0612F50
:1012B0007B2D8D2D9C2D0E949E0720E0412F6D2DB2
:1012C000CE010E942808612F7B2D8D2D9C2D0E9420
:1012D0009E076AE06D0D20E0412FC7010E9428089B
:1012E000DF91CF911F910F91FF90EF90DF90CF9002
:1012F000BF900895CF92DF92EF92FF920F931F93CA
:10130000CF93DF93E62EF12CC82ED12CB701C60166
:101310000E949E0702E710E0C8E6D0E0FE0184913B
:101320000E9496072196C017D107C1F7B7016F5FDA
:101330007F4FC6010E949E07C0E0D0E008E610E0A3
:101340000B5F1F4FF801EC0FFD1F84910E94960761
:101350002196CA30D105B1F7C7010E94DF07DF919E
:10136000CF911F910F91FF90EF90DF90CF90089554
:10137000CF93DF93EC01611104C0888181110BC010
:1013800010C08881882369F021960E940508899100
:101390008111FBCF06C021960E94E307899181113C
:1013A000FBCFDF91CF910895CF92DF92EF92FF9222
:1013B0000F931F93CF93DF93EC016B017A01DC0154
:1013C0000D900020E9F71197CD018C1B9D0BDB01DF
:1013D0000D900020E9F71197A61BB70BFA010190B9
:1013E0000020E9F73197E41BF50BA80FB91FEA0FAE
:1013F000FB1F80E190E08E1B9F0B8C0112F40F5FAE
:101400001F4F1595079565E070E080E090E00E9421
:101410009E0760E0CE010E94B80910161106ECF498
:10142000C0E0D0E080E20E94E3072196C017D10718
:10143000C9F70CC080E20E94E3072196C017D107CC
:10144000C9F760E0C7010E94B8090CC060E0C6019E
:101450000E94B809C0E0D0E0EDCF60E0C6010E9474
:10146000B809EFCFDF91CF911F910F91FF90EF90CF
:10147000DF90CF9008958F929F92AF92BF92CF92BC
:10148000DF92EF92FF920F931F93CF93DF93CDB72D
:10149000DEB728970FB6F894DEBF0FBECDBF298305
:1014A0003A834B836D837E838F83988760E070E0FF
:1014B00080E090E00E949E078D8190E00E949D0850
:1014C0008AE30E94E3078E8190E00E949D088AE3F0
:1014D0000E94E3078F8190E00E949D0880E20E94B5
:1014E000E3078885882331F060E083E391E00E9480
:1014F000B80905C060E086E391E00E94B80962E0A7
:1015000070E080E090E00E949E078A8190E00E9457
:101510009D088FE20E94E3078B8190E00E949D0866
:101520008FE20E94E307898190E00E949D0861E0BC
:1015300070E080E490E00E949E07C8010E949D0830
:1015400060E089E391E00E94B80964E070E081E422
:1015500090E00E949E0760E0C5010E94B809A401C6
:10156000B601C7010E94D40928960FB6F894DEBFD1
:101570000FBECDBFDF91CF911F910F91FF90EF90E4
:10158000DF90CF90BF90AF909F908F900895EF9293
:10159000FF920F931F93CF93DF93CDB7DEB72897BA
:1015A0000FB6F894DEBF0FBECDBF6D83E22E132FB2
:1015B000F42E0E94A90760E070E080E090E00E94B5
:1015C0009E079D81913031F460E08CE391E00E94B0
:1015D000B80905C060E080E491E00E94B8090130DC
:1015E000A1F120F0023009F45FC0A7C000E021E0C3
:1015F00041E050E062E170E08E2D90E00E94F90839
:1016000061E086E20E947A0901E020E041E050E0DA
:101610006BE270E0812F90E00E94F90860E081E3C6
:1016200091E00E94B80982E090E00E94DF07FF206D
:1016300031F060E083E391E00E94B8097EC060E091
:1016400086E391E00E94B80978C001E021E041E022
:1016500050E062E170E08E2D90E00E94F90861E0B8
:1016600086E20E947A0900E020E041E050E06BE26F
:1016700070E0812F90E00E94F90860E081E391E042
:101680000E94B80982E090E00E94DF07FF2031F05D
:1016900060E083E391E00E94B8094FC060E086E318
:1016A00091E00E94B80949C000E021E041E050E02B
:1016B00062E170E08E2D90E00E94F90861E086E220
:1016C0000E947A0920E041E050E06BE270E0812F57
:1016D00090E00E94F90860E081E391E00E94B8097F
:1016E00081E090E00E94DF070CE010E080E80E94BB
:1016F00096070150110901151105C1F762E070E06C
:1017000084E490E00E949E07FF2061F08FEF0E942A
:10171000960761E083E391E00E94B8098FEF0E9491
:1017200096070BC08FEF0E94960761E086E391E079
:101730000E94B8098FEF0E94960744E451E067E4E5
:1017400071E08BE491E00E94D40928960FB6F894DA
:10175000DEBF0FBECDBFDF91CF911F910F91FF90E4
:10176000EF900895CF93C82F60E070E08FE190E094
:101770000E949E0761E0C11160E080E591E00E9457
:10178000B80961E070E087E190E00E949E0761E0A7
:10179000C13009F060E08CE591E00E94B80962E098
:1017A00070E085E190E00E949E0761E0C23009F0A0
:1017B00060E088E691E00E94B80963E070E08DE0A7
:1017C00090E00E949E0761E0C33009F060E084E78A
:1017D00091E00E94B80964E070E08DE090E00E9422
:1017E0009E0761E0C43009F060E080E891E00E946B
:1017F000B80965E070E08FE190E00E949E0761E02B
:10180000C53009F060E08CE891E00E94B809CF9102
:101810000895982F9695969596959E70292F220F4C
:10182000220F920F8F70890F08951F93CF93DF932C
:10183000EC0180ED0E94A10C80E00E94D40C81EDAF
:101840000E94C80C0E94E60C0E94090C8E830E9424
:10185000E60C0E94090C8D830E94E60C182F0E9452
:10186000E60C0E94090C8B830E94E60C0E94090C76
:101870008A830E94E60C0E94090C89830E94F10C65
:101880000E94090C8883812F8F710E94090C8C8320
:1018900015FB112710F91F830E94CB0CDF91CF910C
:1018A0001F91089582E084BD93E095BD80936E0002
:1018B0008AEF87BDA99A16BC089582E08093B00094
:1018C000E1EBF0E08081876080830895219A80E8D1
:1018D0008093800080E18093810086E891E090937E
:1018E0008700809386008AE590E09093890080933A
:1018F000880008952FE02093B300B99A1092B200A7
:10190000009751F020E030E0B99BFECFB99A2F5FED
:101910003F4F28173907C1F70895882349F0E1E8B8
:10192000F0E080818560808380E880938000089566
:10193000E1E8F0E080818A7F80832998109280001E
:10194000089594EA9093BC00ECEBF0E09081992329
:10195000ECF79091B900987F983011F09031A1F494
:101960008093BB0084E88093BC00ECEBF0E08081C6
:101970008823ECF79091B900987F983139F081E095
:10198000903429F480E0089581E0089580E008957E
:101990000E94A10C089584E98093BC00ECEBF0E078
:1019A000808184FDFDCF08958093BB0084E88093FF
:1019B000BC00ECEBF0E080818823ECF79091B9005B
:1019C000987F81E0983209F480E0089584EC809358
:1019D000BC00ECEBF0E080818823ECF78091BB0049
:1019E000089584E88093BC00ECEBF0E080818823CC
:1019F000ECF78091BB00089597FB072E16F4009436
:101A000007D077FD09D00E94100D07FC05D03EF4E9
:101A1000909581959F4F0895709561957F4F08959A
:101A2000AA1BBB1B51E107C0AA1FBB1FA617B70704
:101A300010F0A61BB70B881F991F5A95A9F7809520
:101A40009095BC01CD010895F999FECF92BD81BD5D
:101A5000F89A992780B50895262FF999FECF92BD5F
:101A600081BDF89A019700B4021639F01FBA20BD63
:101A70000FB6F894FA9AF99A0FBE0895F894FFCF2A
:101A80004D454E5500524144494F00414C41524D45
:101A9000203121004F464600414C41524D20322119
:101AA0000020202020202020202020202020202056
:101AB000202000504D00414D0020430041313A00AC
:101AC00041323A0055700053657400446F776E00E0
:101AD00054756E65000000000000000050726573D0
:101AE00065747300000000005365742054696D65CF
:101AF0000000000053657420416C61726D2031005C
:101B000053657420416C61726D2032004261636BD9
:081B10000000000000000000CD
:00000001FF
