:100000000C9433010C9450010C9450010C94500149
:100010000C9450010C9450010C9450010C9450011C
:100020000C9450010C9450010C9450010C9450010C
:100030000C9450010C9450010C9460010C945001EC
:100040000C9450010C9450010C9450010C945001EC
:100050000C9450010C9450010C9450010C945001DC
:100060000C9450010C9450013E4141413E00427FAE
:10007000400042615149462141454B311814127FDD
:100080001027454545393C4A494930017109050366
:100090003649494936064949291E0000000000003A
:1000A000002F00000007000700147F147F14242A8B
:1000B0007F2A12C4C810264636495522500005032F
:1000C0000000001C2241000041221C0014083E08D0
:1000D0001408083E080800005030001010101010DE
:1000E000006060000020100804023E4141413E00D3
:1000F000427F400042615149462141454B3118142D
:10010000127F1027454545393C4A4949300171095C
:1001100005033649494936064949291E0036360045
:100120000000563600000814224100141414141460
:1001300000412214080201510906324959513E7EFC
:100140001111117E7F494949363E414141227F418B
:1001500041221C7F494949417F090909013E414922
:10016000497A7F0808087F00417F41002040413FD5
:10017000017F081422417F404040407F020C027FF3
:100180007F0408107F3E4141413E7F090909063E38
:100190004151215E7F0919294646494949310101EA
:1001A0007F01013F4040403F1F2040201F3F40381B
:1001B000403F6314081463070870080761514945FC
:1001C00043007F414100552A552A550041417F0097
:1001D00004020102044040404040000102040020AB
:1001E000545454787F484444383844444420384474
:1001F00044487F3854545418087E0901020C525266
:10020000523E7F0804047800447D40002040443D75
:10021000007F1028440000417F40007C04180478CF
:100220007C0804047838444444387C1414140808C6
:100230001414187C7C080404084854545420043FC7
:100240004440203C4040207C1C2040201C3C40304E
:10025000403C44281028440C5050503C4464544CBA
:1002600044000609090611241FBECFEFD8E0DEBF07
:10027000CDBF11E0A0E0B1E0EAE7FEE002C00590EA
:100280000D92AE33B107D9F721E0AEE3B1E001C082
:100290001D92AC35B207E1F70E942F020C943B0788
:1002A0000C940000309A319A329A089520914A01B4
:1002B00030E0C9010F968D3391050CF0CC9708956D
:1002C0001F920F920FB60F9211242F933F934F93CB
:1002D0005F938F939F9396B181E0982726B12695DF
:1002E0002170282736B132FB332730F93827492FC0
:1002F000417090FF1CC08091400190914101019696
:1003000090934101809340018233910539F481E05B
:1003100090E090933F0180933E0109C08C3B924056
:1003200031F484E090E090933F0180933E012223DA
:10033000E1F080914001909141010196909341013B
:10034000809340018233910539F482E090E09093EC
:100350003F0180933E0109C08C3B924031F485E01F
:1003600090E090933F0180933E013323E9F0809128
:100370004001909141010196909341018093400189
:100380008233910539F483E090E090933F018093AC
:100390003E0122C08C3B924039F486E090E090937D
:1003A0003F0180933E0107C080913E0190913F0143
:1003B000843091058CF0411121C021111FC03111F1
:1003C0001DC08093430110923F0110923E01109294
:1003D00041011092400112C0009781F041110EC0FE
:1003E00021110CC031110AC08093430110923F01CA
:1003F00010923E0110924101109240019F918F9105
:100400005F914F913F912F910F900FBE0F901F90D2
:10041000189582E090E00E9421078093500181E0CE
:1004200090E00E9421078093510180E090E00E94BB
:1004300021078093530108956091500182E090E07C
:100440000E9429076091510181E090E00E942907F4
:100450006091530180E090E00E9429070895CF93B6
:10046000DF93CDB7DEB763970FB6F894DEBF0FBE4C
:10047000CDBFF8940E94A3060E94B7060E94AE0664
:100480000E94F6030E9452010E9443040E947C04D1
:1004900078948FE49EE4A0E2B0E08B879C87AD87E0
:1004A000BE878FE496E4A6E4B0E08F87988BA98B93
:1004B000BA8BBE01615F7F4FCE0101960E941A0781
:1004C0000E9409021B8A0F2EF0E58F2EF1E09F2E6D
:1004D000F02D0F2EF8E46F2EF1E07F2EF02D0F2E71
:1004E000F1E54F2EF1E05F2EF02D0F2EF3E52F2ECC
:1004F000F1E03F2EF02D84E491E00E946306CE01EE
:1005000001965C010F2EF0E0CF2EF1E0DF2EF02DF2
:100510000F2EF6E0EF2EF1E0FF2EF02D05E110E0BA
:10052000209144013091450140914601509147018D
:10053000609148017091490180914A0190914B016D
:100540000E948F05F4019081F3018081981351C0BE
:10055000F201F080E9E4F1E08081F8124AC0F10193
:10056000908180914B01981344C08091420188236F
:1005700009F43FC0FB89FF15E1F181E00E94DE062E
:100580000E94690460E070E080E090E00E945E04F8
:100590008AE091E00E941D054EE251E0BA0181E13E
:1005A00091E00E942C05109243010E9456018C019B
:1005B000EAE4F1E0808190E08017910799F084E40B
:1005C00091E00E94630685E090E00E94CB06809156
:1005D0004301811107C0EAE4F1E0208130E02017F7
:1005E000310769F780E00E94DE0610924301FB8A22
:1005F00082CF80914301823061F0833009F4DCC006
:10060000813009F078CF80E00E94DE06109243012D
:1006100072CF0F2EFEE2CF2EF1E0DF2EF02D0F2E47
:10062000F5E1EF2EF1E0FF2EF02D0BE111E020912E
:100630004C0130914D0140914E0150914F0160911C
:1006400050017091510180915201909153010E948B
:100650000A061092430133C085E090E00E94CB0669
:1006600080914301813059F5F40180818F5F8D3095
:1006700011F0808302C0F40110820F2EFEE2CF2E13
:10068000F1E0DF2EF02D0F2EF5E1EF2EF1E0FF2E41
:10069000F02D0BE111E020914C0130914D01409182
:1006A0004E0150914F016091500170915101809124
:1006B0005201909153010E940A06109243018091C9
:1006C0004301823049F61092430133C085E090E047
:1006D0000E94CB0680914301813059F5F20180815F
:1006E0008F5F8C3311F0808302C0F20110820F2ED5
:1006F000FEE2CF2EF1E0DF2EF02D0F2EF5E1EF2EF2
:10070000F1E0FF2EF02D0BE111E020914C01309132
:100710004D0140914E0150914F01609150017091F7
:10072000510180915201909153010E940A0610924A
:10073000430180914301823049F61092430133C056
:1007400085E090E00E94CB0680914301813059F50D
:10075000F10180818F5F823010F4808302C0F1014B
:1007600010820F2EFEE2CF2EF1E0DF2EF02D0F2EA5
:10077000F5E1EF2EF1E0FF2EF02D0BE111E02091DD
:100780004C0130914D0140914E0150914F016091CB
:1007900050017091510180915201909153010E943A
:1007A0000A061092430180914301823049F60E946B
:1007B0001C02109243019FCE9091420181E0892753
:1007C00080934201882341F0BE01655F7F4FCE01D7
:1007D00001960E941A0707C0BE01615F7F4FCE01DC
:1007E00001960E941A071092430185CE87B1806658
:1007F00087B91092B90088E48093B800089584EA1C
:100800008093BC00ECEBF0E080818823ECF7089546
:10081000880F682B6093BB0084E88093BC00ECEBEE
:10082000F0E080818823ECF708958093BB0084E892
:100830008093BC00ECEBF0E080818823ECF7089516
:1008400084E88093BC00ECEBF0E080818823ECF737
:100850008091BB000895CF93C62F0E94FF0360E0F4
:1008600088E60E9408048C2F0E9415040E94FF0352
:1008700061E088E60E9408040E94200494E99093B5
:10088000BC00CF910895209A259A239A549A229ACF
:1008900081E58CBD08952A985C988EBD0DB407FE45
:1008A000FDCF8DB58F778DBD2A9A08952A985C9AD1
:1008B0008EBD0DB407FEFDCF2A9A0895CF93C62FA3
:1008C00080680E944B048C2F80640E944B04CF915F
:1008D0000895CF93DF93C8EFD1E080E00E945604E3
:1008E00021972097D1F760E070E080E090E00E94CF
:1008F0005E04DF91CF9108952A98289881E090E0D6
:100900000E94CB06289A0E9469042A9A8CE00E94D1
:100910004B0460E070E080E090E00E945E0481E2C1
:100920000E944B0486E00E944B0480EA0E944B0424
:1009300086E10E944B0480E20E944B0408950F93CD
:100940001F93CF93DF93082F10E000521109C801C5
:10095000880F991F880F991F080F191FC0E0D0E05A
:1009600006561F4FF801EC0FFD1F84910E9456049C
:100970002196C530D105B1F7DF91CF911F910F912D
:1009800008958F929F92AF92BF92CF92DF92EF9293
:10099000FF920F931F93CF93DF934C016AE070E0B7
:1009A0000E94F2065B016B01CC0CDD1CCC0CDD1C43
:1009B000C601860F971FC0E0D0E00F2EF8E6EF2E9D
:1009C000F0E0FF2EF02D9C0128593F4F690187016F
:1009D000F601EC0FFD1F84910E9456042196C5304C
:1009E000D105A9F726EFA5012403C001259F900D8D
:1009F0001124880E991EC401880F991F880F991F12
:100A0000880E991EC0E0D0E0080D191DF801EC0F0A
:100A1000FD1F84910E9456042196C530D105B1F77F
:100A2000DF91CF911F910F91FF90EF90DF90CF90CA
:100A3000BF90AF909F908F900895CF93DF93EC017C
:100A40008881882331F021960E949F048991811129
:100A5000FBCFDF91CF910895CF92DF92EF92FF927B
:100A60000F931F93CF93DF93EC016B017A01DC01AD
:100A70000D900020E9F71197CD018C1B9D0BDB0138
:100A80000D900020E9F71197A61BB70BFA01019012
:100A90000020E9F73197E41BF50BA80FB91FEA0F07
:100AA000FB1F80E190E08E1B9F0B8C0112F40F5F07
:100AB0001F4F1595079565E070E080E090E00E947B
:100AC0005E04CE010E941D0510161106DCF4C0E084
:100AD000D0E080E20E949F042196C017D107C9F799
:100AE0000BC080E20E949F042196C017D107C9F76E
:100AF000C7010E941D050AC0C6010E941D05C0E075
:100B0000D0E0EFCFC6010E941D05F2CFDF91CF915B
:100B10001F910F91FF90EF90DF90CF900895AF92CB
:100B2000BF92CF92DF92EF92FF920F931F93CF93DA
:100B3000DF93CDB7DEB728970FB6F894DEBF0FBEB0
:100B4000CDBF29833A834B836D837E838F839887C0
:100B500060E070E080E090E00E945E048D8190E0B3
:100B60000E94C1048AE30E949F048E8190E00E944B
:100B7000C1048AE30E949F048F8190E00E94C10417
:100B800080E20E949F048885882329F080E391E019
:100B90000E941D0504C083E391E00E941D0562E0F0
:100BA00070E080E090E00E945E048A8190E00E9404
:100BB000C1048FE20E949F048B8190E00E94C104D7
:100BC0008FE20E949F04898190E00E94C10461E04D
:100BD00070E080E490E00E945E04C8010E94C104BD
:100BE00086E391E00E941D05A501B601C7010E94A0
:100BF0002C0528960FB6F894DEBF0FBECDBFDF914F
:100C0000CF911F910F91FF90EF90DF90CF90BF9009
:100C1000AF900895CF92DF92EF92FF920F931F93C0
:100C2000CF93DF93CDB7DEB728970FB6F894DEBF2A
:100C30000FBECDBF6D837E8398870E94690460E0FC
:100C400070E080E090E00E945E0489E391E00E9401
:100C50001D058D8190E00E94C1048AE30E949F04DB
:100C60008E8190E00E94C10480E20E949F048885EA
:100C7000882329F080E391E00E941D0504C083E3EE
:100C800091E00E941D05A601B701C8010E942C0534
:100C900028960FB6F894DEBF0FBECDBFDF91CF917F
:100CA0001F910F91FF90EF90DF90CF900895982FB4
:100CB0009695969596959E70292F220F220F920F4A
:100CC0008F70890F0895CF93DF93EC0166E088E67B
:100CD0000E942B040E945706888365E088E60E94E4
:100CE0002B040E945706898364E088E60E942B0447
:100CF0000E9457068A8363E088E60E942B040E94C4
:100D000057068B8362E088E60E942B048F710E9455
:100D100057068C8361E088E60E942B040E945706E8
:100D20008D8360E088E60E942B040E9457068E8324
:100D300062E088E60E942B0485FB882780F98F8378
:100D4000DF91CF91089582E084BD93E095BD8093BB
:100D50006E008AEF87BDA99A16BC089582E0809341
:100D6000B000E1EBF0E08081876080830895219AF4
:100D700080E88093800080E18093810086E891E0A4
:100D800090938700809386008AE590E09093890095
:100D90008093880008952FE02093B300B99A1092B1
:100DA000B200009751F020E030E0B99BFECFB99A35
:100DB0002F5F3F4F28173907C1F70895882349F05F
:100DC000E1E8F0E080818560808380E880938000A6
:100DD0000895E1E8F0E080818A7F8083299810926D
:100DE0008000089597FB072E16F4009407D077FD36
:100DF00009D00E94060707FC05D03EF49095819526
:100E00009F4F0895709561957F4F0895AA1BBB1B56
:100E100051E107C0AA1FBB1FA617B70710F0A61BFA
:100E2000B70B881F991F5A95A9F780959095BC011B
:100E3000CD010895FB01DC0101900D920020E1F746
:100E40000895F999FECF92BD81BDF89A992780B592
:100E50000895262FF999FECF92BD81BDF89A01978A
:100E600000B4021639F01FBA20BD0FB6F894FA9AF2
:0A0E7000F99A0FBE0895F894FFCF21
:100E7A00414C41524D0053455400414C41524D2181
:100E8A00004F464600454E5445520055500020201A
:100E9A002020202020202020202020202020200068
:0E0EAA00504D00414D0020430041313A000000
:00000001FF
