:100000000C9433010C9460010C9450010C94500139
:100010000C9450010C9450010C9450010C9450011C
:100020000C9450010C9450010C9450010C9450010C
:100030000C9450010C9450010C94C2010C9450018A
:100040000C9450010C9450010C9450010C945001EC
:100050000C9450010C9450010C9450010C945001DC
:100060000C9450010C9450013E4141413E00427FAE
:10007000400042615149462141454B311814127FDD
:100080001027454545393C4A494930017109050366
:100090003649494936064949291E0000000000003A
:1000A000002F00000007000700147F147F14242A8B
:1000B0007F2A12C4C810264636495522500005032F
:1000C0000000001C2241000041221C0014083E08D0
:1000D0001408083E080800005030001010101010DE
:1000E000006060000020100804023E4141413E00D3
:1000F000427F400042615149462141454B3118142D
:10010000127F1027454545393C4A4949300171095C
:1001100005033649494936064949291E0036360045
:100120000000563600000814224100141414141460
:1001300000412214080201510906324959513E7EFC
:100140001111117E7F494949363E414141227F418B
:1001500041221C7F494949417F090909013E414922
:10016000497A7F0808087F00417F41002040413FD5
:10017000017F081422417F404040407F020C027FF3
:100180007F0408107F3E4141413E7F090909063E38
:100190004151215E7F0919294646494949310101EA
:1001A0007F01013F4040403F1F2040201F3F40381B
:1001B000403F6314081463070870080761514945FC
:1001C00043007F414100552A552A550041417F0097
:1001D00004020102044040404040000102040020AB
:1001E000545454787F484444383844444420384474
:1001F00044487F3854545418087E0901020C525266
:10020000523E7F0804047800447D40002040443D75
:10021000007F1028440000417F40007C04180478CF
:100220007C0804047838444444387C1414140808C6
:100230001414187C7C080404084854545420043FC7
:100240004440203C4040207C1C2040201C3C40304E
:10025000403C44281028440C5050503C4464544CBA
:1002600044000609090611241FBECFEFD8E0DEBF07
:10027000CDBF11E0A0E0B1E0E4E2F0E102C0059002
:100280000D92AE33B107D9F721E0AEE3B1E001C082
:100290001D92AC35B207E1F70E94B5020C9410082C
:1002A0000C940000309A319A329A089520914A01B4
:1002B00030E0C9010F968D3391050CF0CC9708956D
:1002C0001F920F920FB60F9211240F931F932F932B
:1002D0003F934F935F936F937F938F939F93AF93CE
:1002E000BF93CF93DF93EF93FF9381E00E94B30717
:1002F0000E94C80480E091E00E947C054EE251E03B
:10030000BA0187E091E00E948B05109243010E94A0
:100310005601EC0178948091430181111AC08091BB
:100320004A0190E08C179D07A1F00AE411E084E4F3
:1003300091E00E94380785E090E00E94A00780913C
:100340004301811106C0F801208130E02C173D07E0
:1003500071F780E00E94B3075A98FF91EF91DF9107
:10036000CF91BF91AF919F918F917F916F915F914D
:100370004F913F912F911F910F910F900FBE0F90B2
:100380001F9018951F920F920FB60F9211242F9362
:100390003F934F935F938F939F9396B181E09827FC
:1003A00026B126952170282736B132FB332730F944
:1003B0003827492F417090FF1CC0809140019091D7
:1003C0004101019690934101809340018233910550
:1003D00039F481E090E090933F0180933E0109C0A1
:1003E0008C3B924031F484E090E090933F01809305
:1003F0003E012223E1F0809140019091410101965C
:1004000090934101809340018233910539F482E059
:1004100090E090933F0180933E0109C08C3B924055
:1004200031F485E090E090933F0180933E013323C7
:10043000E9F0809140019091410101969093410132
:10044000809340018233910539F483E090E09093EA
:100450003F0180933E0122C08C3B924039F486E0FC
:1004600090E090933F0180933E0107C080913E0150
:1004700090913F01843091058CF0411121C02111F0
:100480001FC031111DC08093430110923F01109293
:100490003E01109241011092400112C0009781F07C
:1004A00041110EC021110CC031110AC080934301CB
:1004B00010923F0110923E011092410110924001B2
:1004C0009091500180914801981315C0909151016D
:1004D0008091490198130FC09091530180914B0175
:1004E000981309C080914201882329F080914A0124
:1004F000811101C05A9A9F918F915F914F913F91C5
:100500002F910F900FBE0F901F90189582E090E0F2
:100510000E94F6078093500181E090E00E94F60768
:100520008093510180E090E00E94F6078093530190
:1005300008956091500182E090E00E94FE07609172
:10054000510181E090E00E94FE076091530180E03C
:1005500090E00E94FE07089583E08093690081E0A7
:100560008DBBE09A529A5A980895CF93DF93CDB7F6
:10057000DEB762970FB6F894DEBF0FBECDBFF8941A
:100580000E9478070E948C070E9483070E943F0404
:100590000E9452010E94A2040E94DB040E94AC024D
:1005A00078948FE49EE4A0E2B0E08B879C87AD87CF
:1005B000BE878FE496E4A6E4B0E08F87988BA98B82
:1005C000BA8BBE01615F7F4FCE0101960E94EF079B
:1005D00086E0682F8093580198E0792F9093590115
:1005E00010925A0191E090935B0128E1422F2093F1
:1005F0005601582F809357018AE0382F8093550178
:100600008EE0282F8093540180E00E94D5060E943E
:1006100086020F2EF0E56F2EF1E07F2EF02D0F2ECB
:10062000F1E58F2EF1E09F2EF02D0F2EF3E54F2EEA
:10063000F1E05F2EF02D3324339484E491E00E94A6
:100640003807CE0101965C010F2EFBE0CF2EF1E0C2
:10065000DF2EF02D0F2EF1E1EF2EF1E0FF2EF02D29
:1006600005E110E02091440130914501409146019F
:1006700050914701609148017091490180914A0170
:1006800090914B010E94EE0580914301823059F018
:10069000833009F4DBC0813081F680E00E94B3072B
:1006A00010924301CACF0F2EFEE2CF2EF1E0DF2ED3
:1006B000F02D0F2EF5E1EF2EF1E0FF2EF02D0BE1E6
:1006C00011E020914C0130914D0140914E0150912B
:1006D0004F016091500170915101809152019091B0
:1006E00053010E9469061092430133C085E090E0F7
:1006F0000E94A00780914301813059F5F301808168
:100700008F5F8D3011F0808302C0F30110820F2EB5
:10071000FEE2CF2EF1E0DF2EF02D0F2EF5E1EF2ED1
:10072000F1E0FF2EF02D0BE111E020914C01309112
:100730004D0140914E0150914F01609150017091D7
:10074000510180915201909153010E9469061092CB
:10075000430180914301823049F61092430133C036
:1007600085E090E00E94A00780914301813059F517
:10077000F40180818F5F8C3311F0808302C0F4011B
:1007800010820F2EFEE2CF2EF1E0DF2EF02D0F2E85
:10079000F5E1EF2EF1E0FF2EF02D0BE111E02091BD
:1007A0004C0130914D0140914E0150914F016091AB
:1007B00050017091510180915201909153010E941A
:1007C00069061092430180914301823049F61092EC
:1007D000430133C085E090E00E94A007809143016F
:1007E000813059F5F20180818F5F823010F480836F
:1007F00002C0F20110820F2EFEE2CF2EF1E0DF2EBA
:10080000F02D0F2EF5E1EF2EF1E0FF2EF02D0BE194
:1008100011E020914C0130914D0140914E015091D9
:100820004F0160915001709151018091520190915E
:1008300053010E9469061092430180914301823066
:1008400049F60E94990210924301F7CE809142012D
:10085000832580934201882341F0BE01655F7F4F6D
:10086000CE0101960E94EF0707C0BE01615F7F4F76
:10087000CE0101960E94EF0710924301DECE87B1B0
:10088000806687B91092B90088E48093B800089513
:1008900084EA8093BC00ECEBF0E080818823ECF7E5
:1008A0000895880F682B6093BB0084E88093BC0098
:1008B000ECEBF0E080818823ECF708958093BB0097
:1008C00084E88093BC00ECEBF0E080818823ECF7B7
:1008D000089584E88093BC00ECEBF0E080818823ED
:1008E000ECF78091BB000895CF93DF93D62FC42FF0
:1008F0000E94480460E088E60E9451048D2F0E9407
:100900005E048C2F0E945E0484E98093BC00DF911A
:10091000CF910895CF93C62F0E94480460E088E6E7
:100920000E9451048C2F0E945E040E94480461E0E2
:1009300088E60E9451040E94690494E99093BC00E7
:10094000CF910895209A259A239A549A229A81E564
:100950008CBD08952A985C988EBD0DB407FEFDCF1E
:100960008DB58F778DBD2A9A08952A985C9A8EBD91
:100970000DB407FEFDCF2A9A0895CF93C62F806845
:100980000E94AA048C2F80640E94AA04CF9108952B
:10099000CF93DF93C8EFD1E080E00E94B5042197A8
:1009A0002097D1F760E070E080E090E00E94BD0405
:1009B000DF91CF9108952A98289881E090E00E94D5
:1009C000A007289A0E94C8042A9A8CE00E94AA04D0
:1009D00060E070E080E090E00E94BD0481E20E944F
:1009E000AA0486E00E94AA0480EA0E94AA0486E182
:1009F0000E94AA0480E20E94AA0408950F931F9304
:100A0000CF93DF93082F10E000521109C801880F1F
:100A1000991F880F991F080F191FC0E0D0E00656D4
:100A20001F4FF801EC0FFD1F84910E94B504219621
:100A3000C530D105B1F7DF91CF911F910F91089586
:100A40008F929F92AF92BF92CF92DF92EF92FF92DE
:100A50000F931F93CF93DF934C016AE070E00E94E5
:100A6000C7075B016B01CC0CDD1CCC0CDD1CC60187
:100A7000860F971FC0E0D0E00F2EF8E6EF2EF0E0D3
:100A8000FF2EF02D9C0128593F4F69018701F60187
:100A9000EC0FFD1F84910E94B5042196C530D1054D
:100AA000A9F726EFA5012403C001259F900D11246D
:100AB000880E991EC401880F991F880F991F880EF0
:100AC000991EC0E0D0E0080D191DF801EC0FFD1FC4
:100AD00084910E94B5042196C530D105B1F7DF910C
:100AE000CF911F910F91FF90EF90DF90CF90BF902B
:100AF000AF909F908F900895CF93DF93EC01888102
:100B0000882331F021960E94FE0489918111FBCF48
:100B1000DF91CF910895CF92DF92EF92FF920F93E2
:100B20001F93CF93DF93EC016B017A01DC010D90F1
:100B30000020E9F71197CD018C1B9D0BDB010D9077
:100B40000020E9F71197A61BB70BFA0101900020CE
:100B5000E9F73197E41BF50BA80FB91FEA0FFB1F4C
:100B600080E190E08E1B9F0B8C0112F40F5F1F4FF2
:100B70001595079565E070E080E090E00E94BD0467
:100B8000CE010E947C0510161106DCF4C0E0D0E016
:100B900080E20E94FE042196C017D107C9F70BC05E
:100BA00080E20E94FE042196C017D107C9F7C70151
:100BB0000E947C050AC0C6010E947C05C0E0D0E00E
:100BC000EFCFC6010E947C05F2CFDF91CF911F913C
:100BD0000F91FF90EF90DF90CF900895AF92BF926A
:100BE000CF92DF92EF92FF920F931F93CF93DF93F9
:100BF000CDB7DEB728970FB6F894DEBF0FBECDBFD6
:100C000029833A834B836D837E838F83988760E04B
:100C100070E080E090E00E94BD048D8190E00E9431
:100C200020058AE30E94FE048E8190E00E94200548
:100C30008AE30E94FE048F8190E00E94200580E2FA
:100C40000E94FE048885882329F080E391E00E94B9
:100C50007C0504C083E391E00E947C0562E070E0C3
:100C600080E090E00E94BD048A8190E00E9420050F
:100C70008FE20E94FE048B8190E00E9420058FE2AB
:100C80000E94FE04898190E00E94200561E070E0EE
:100C900080E490E00E94BD04C8010E94200586E324
:100CA00091E00E947C05A501B601C7010E948B0559
:100CB00028960FB6F894DEBF0FBECDBFDF91CF915F
:100CC0001F910F91FF90EF90DF90CF90BF90AF906A
:100CD0000895CF92DF92EF92FF920F931F93CF93DD
:100CE000DF93CDB7DEB728970FB6F894DEBF0FBEFF
:100CF000CDBF6D837E8398870E94C80460E070E05A
:100D000080E090E00E94BD0489E391E00E947C05B0
:100D10008D8190E00E9420058AE30E94FE048E816E
:100D200090E00E94200580E20E94FE0488858823CE
:100D300029F080E391E00E947C0504C083E391E008
:100D40000E947C05A601B701C8010E948B05289668
:100D50000FB6F894DEBF0FBECDBFDF91CF911F91CC
:100D60000F91FF90EF90DF90CF900895982F969578
:100D7000969596959E70292F220F220F920F8F70B5
:100D8000890F08959DEC899F912D11249695969534
:100D9000969540E1949F90011124990F392F330FBC
:100DA000330F930F891B822B08951F93CF93DF93EB
:100DB000CDB7DEB728970FB6F894DEBF0FBECDBF14
:100DC0003A834B835C837E838F839887162F822F91
:100DD0000E94C206482F66E088E60E9474048A8159
:100DE0000E94C206482F65E088E60E9474048B8149
:100DF0000E94C206482F64E088E60E9474048C8139
:100E00000E94C206482F63E088E60E947404888529
:100E1000882351F0812F0E94C206482F406662E06D
:100E200088E60E9474040AC0812F0E94C2068F794E
:100E3000482F406462E088E60E9474048E810E941C
:100E4000C206482F61E088E60E9474048F810E94E8
:100E5000C206482F60E088E60E94740428960FB608
:100E6000F894DEBF0FBECDBFDF91CF911F910895E3
:100E7000CF93DF93EC0166E088E60E948A040E942B
:100E8000B606888365E088E60E948A040E94B6065A
:100E9000898364E088E60E948A040E94B6068A83F9
:100EA00063E088E60E948A040E94B6068B8362E0B3
:100EB00088E60E948A048F710E94B6068C8361E0E6
:100EC00088E60E948A040E94B6068D8360E088E668
:100ED0000E948A040E94B6068E8362E088E60E9421
:100EE0008A0485FB882780F98F83DF91CF9108954D
:100EF00082E084BD93E095BD80936E008AEF87BD4C
:100F0000A99A16BC089582E08093B000E1EBF0E06E
:100F10008081876080830895219A80E88093800093
:100F200080E18093810086E891E090938700809330
:100F300086008AE590E09093890080938800089568
:100F40002FE02093B300B99A1092B200009751F0AD
:100F500020E030E0B99BFECFB99A2F5F3F4F2817B2
:100F60003907C1F70895882349F0E1E8F0E080816E
:100F70008560808380E8809380000895E1E8F0E058
:100F800080818A7F8083299810928000089597FB42
:100F9000072E16F4009407D077FD09D00E94DB07D6
:100FA00007FC05D03EF4909581959F4F089570956C
:100FB00061957F4F0895AA1BBB1B51E107C0AA1F73
:100FC000BB1FA617B70710F0A61BB70B881F991FEA
:100FD0005A95A9F780959095BC01CD010895FB0124
:100FE000DC0101900D920020E1F70895F999FECF00
:100FF00092BD81BDF89A992780B50895262FF99959
:10100000FECF92BD81BDF89A019700B4021639F067
:101010001FBA20BD0FB6F894FA9AF99A0FBE089538
:04102000F894FFCF72
:10102400414C41524D21004F464600414C41524DE6
:101034000053455400454E5445520055500020205D
:1010440020202020202020202020202020202000BC
:0E105400504D00414D0020430041313A000054
:00000001FF
