:100000000C94A6010C94C3010C94C3010C94C3017D
:100010000C94C3010C94C3010C9460070C94C301AD
:100020000C94C3010C94C3010C94C3010C94C30140
:100030000C94C3010C94C3010C94A2060C94C3014C
:100040000C94C3010C94C3010C94C3010C94C30120
:100050000C94C3010C9471070C94C3010C94C3015C
:100060000C94C3010C94C30100C0C0C00000393916
:100070003900F0FCFE060206FEFCF000071F3F30D0
:1000800020303F1F070010080CFCFEFE000000009F
:100090002020203F3F3F202020000C0E0602028639
:1000A000FE7C380030383C363331303038000C0EAE
:1000B000868282C6FE7C38001838302020313F1FEF
:1000C0000E0000C0201804FEFEFE00000302020223
:1000D000223F3F3F220300FE7E4646C6C687000001
:1000E0001838302020303F1F0F00C0F0F8BC4CC63D
:1000F000C28200000F1F3F3020303F1F0F000E064E
:10010000060606C6F63E0E000000303C0F03000057
:100110000000387CFEC682C6FE7C38000E1F3F31D0
:1001200020313F1F0E0078FCFE860286FEFCF800A0
:1001300000002121311C1F0F0300000000000000FF
:1001400000000000000000000000000000003E4130
:1001500041413E00427F40004261514946214145B4
:100160004B311814127F1027454545393C4A4949FF
:100170003001710905033649494936064949291EA6
:10018000000000000000002F00000007000700141E
:100190007F147F14242A7F2A12C4C81026463649A9
:1001A0005522500005030000001C2241000041229E
:1001B0001C0014083E081408083E080800005030CF
:1001C00000101010101000606000002010080402E1
:1001D0003E4141413E00427F40004261514946213B
:1001E00041454B311814127F1027454545393C4A8B
:1001F00049493001710905033649494936064949DB
:10020000291E003636000000563600000814224130
:100210000014141414140041221408020151090698
:10022000324959513E7E1111117E7F494949363E6E
:10023000414141227F4141221C7F494949417F0977
:100240000909013E4149497A7F0808087F00417F3A
:1002500041002040413F017F081422417F4040403F
:10026000407F020C027F7F0408107F3E4141413EE7
:100270007F090909063E4151215E7F091929464639
:100280004949493101017F01013F4040403F1F2062
:1002900040201F3F4038403F631408146307087034
:1002A00008076151494543007F414100552A552ABD
:1002B000550041417F00040201020440404040409B
:1002C000000102040020545454787F4844443838D4
:1002D00044444420384444487F3854545418087ED9
:1002E0000901020C5252523E7F0804047800447DFA
:1002F00040002040443D007F1028440000417F40E2
:10030000007C041804787C08040478384444443899
:100310007C14141408081414187C7C08040408487D
:1003200054545420043F4440203C4040207C1C2036
:1003300040201C3C4030403C44281028440C505085
:10034000503C4464544C44000609090611241FBE65
:10035000CFEFD8E0DEBFCDBF11E0A0E0B1E0ECE729
:10036000FAE102C005900D92A839B107D9F721E052
:10037000A8E9B1E001C01D92A73DB207E1F70E94D4
:1003800038020C943C0D0C940000509851985598EC
:1003900056985798589A599A5D9A5E9A5F9A3B9ADE
:1003A0003E9A439A469A089587E090E00E94220D73
:1003B0008093B30186E090E00E94220D8093B40107
:1003C00085E090E00E94220D8093B50184E090E0EA
:1003D0000E94220D8093B60183E090E00E94220DDE
:1003E0008093CF0182E090E00E94220D8093D001A3
:1003F00081E090E00E94220D8093D10180E090E0A6
:100400000E94220D8093D20108956091B30187E08C
:1004100090E00E942A0D6091B40186E090E00E9475
:100420002A0D6091B50185E090E00E942A0D60914F
:10043000CF0183E090E00E942A0D6091D00182E01C
:1004400090E00E942A0D6091D10181E090E00E942D
:100450002A0D089588E10FB6F894809360001092F9
:1004600060000FBEE0E6F0E0808380E680830895C0
:10047000F8940E944A0C0E945E0C0E94550C0E9447
:100480002A020E94990C0E94C5010E947B070E94CB
:10049000B40778940E94D401E6EBF1E0808181708A
:1004A0008083E2EDF1E020812170208391E0909340
:1004B000B70192E09093D301882369F08FE49EE422
:1004C000A0E2B0E08093C5019093C601A093C7015C
:1004D000B093C8010CC08FE496E4A6E4B0E080932A
:1004E000C5019093C601A093C701B093C801222310
:1004F00069F08FE49EE4A0E2B0E08093BB019093AA
:10050000BC01A093BD01B093BE010CC08FE496E482
:10051000A6E4B0E08093BB019093BC01A093BD0121
:10052000B093BE01CFECD1E00F2EF0ED6F2EF1E0D5
:100530007F2EF02D0F2EF1ED4F2EF1E05F2EF02DDE
:100540000F2EF5EB2F2EF1E03F2EF02D8091A20122
:10055000833009F4C7C228F4813069F0823071F029
:100560001DC3863009F4EFC2803309F4E6C285303A
:1005700009F014C3E5C21092A201E8CF1092A201C3
:1005800081E080939F0110929E0110929D010E9434
:10059000A1070F2EFDE9EF2EF1E0FF2EF02D0F2E1B
:1005A000F4EBAF2EF1E0BF2EF02D0F2EF3EBCF2E9C
:1005B000F1E0DF2EF02D8BC2D7018C910E94AA0BA7
:1005C0008091A201823091F0833009F461C28130C0
:1005D00009F069C21092A20180919D0190919E0143
:1005E000019790939E0180939D015DC21092A2019C
:1005F00080919D0190919E018430910509F426C15E
:100600008530910509F43FC2039709F04CC201E01F
:100610002091B3013091B4014091B5015091B601E0
:100620006091B7017091B8018091B9019091BA01C0
:100630000E94BF0A1092A20180919C018F3008F0A5
:100640004EC01DE03FC0813019F08330F1F03AC058
:10065000F6018081811102C0108334C08150282F9F
:10066000808301E03091B4014091B5015091B60111
:100670006091B7017091B8018091B9019091BA0170
:100680000E94BF0A1092A2011DC0F60180818F5FF7
:100690008D3010F4808301C0108201E02091B301FD
:1006A0003091B4014091B5015091B6016091B7010C
:1006B0007091B8018091B9019091BA010E94BF0A6E
:1006C0001092A20185E090E00E94720C8091A2013C
:1006D000823029F090919C019F3008F4B4CF1092A1
:1006E000A20100E02091B3013091B4014091B50125
:1006F0005091B6016091B7017091B8018091B90134
:100700009091BA010E94BF0A8091A201823009F43F
:1007100052C090919C019F3008F04DC01CE3813085
:1007200019F08330F1F03AC0F5018081811102C0E7
:10073000108334C08150382F808300E02091B301B2
:100740004091B5015091B6016091B7017091B80127
:100750008091B9019091BA010E94BF0A1092A20142
:100760001DC0F50180818F5F8C3310F4808301C040
:10077000108200E02091B3013091B4014091B501A5
:100780005091B6016091B7017091B8018091B901A3
:100790009091BA010E94BF0A1092A20185E090E0F8
:1007A0000E94720C8091A201823029F090919C01EC
:1007B0009F3008F4B4CF1092A20102E02091B3015F
:1007C0003091B4014091B5015091B6016091B701EB
:1007D0007091B8018091B9019091BA010E94BF0A4D
:1007E00026C085E090E00E94720C8091A2018D7F6E
:1007F0008130E9F4F10180818F5F823010F48083D1
:1008000001C0108202E02091B3013091B401409107
:10081000B5015091B6016091B7017091B801809116
:10082000B9019091BA010E94BF0A1092A201809171
:10083000A201823021F080919C018F3090F20E94C1
:1008400005021092A2010E94A1072DC101E0209192
:10085000CF013091D0014091D1015091D2016091EE
:10086000D3017091D4018091D5019091D6010E945D
:10087000BF0A1092A20180919C018F3008F04CC0F9
:100880001DE03DC0813019F08330E9F038C0888127
:10089000811102C0188333C08150282F888301E062
:1008A0003091D0014091D1015091D2016091D3019A
:1008B0007091D4018091D5019091D6010E94BF0A18
:1008C0001092A2011CC088818F5F8D3010F4888344
:1008D00001C0188201E02091CF013091D0014091F8
:1008E000D1015091D2016091D3017091D4018091D6
:1008F000D5019091D6010E94BF0A1092A20185E015
:1009000090E00E94720C8091A201823029F09091B7
:100910009C019F3008F4B6CF1092A20100E0209114
:10092000CF013091D0014091D1015091D20160911D
:10093000D3017091D4018091D5019091D6010E948C
:10094000BF0A8091A201823009F452C090919C01AB
:100950009F3008F04DC01CE3813019F08330F1F076
:100960003AC0F3018081811102C0108334C08150EC
:10097000382F808300E02091CF014091D101509128
:10098000D2016091D3017091D4018091D5019091F1
:10099000D6010E94BF0A1092A2011DC0F3018081FE
:1009A0008F5F8C3310F4808301C0108200E02091AF
:1009B000CF013091D0014091D1015091D20160918D
:1009C000D3017091D4018091D5019091D6010E94FC
:1009D000BF0A1092A20185E090E00E94720C809103
:1009E000A201823029F090919C019F3008F4B4CF8D
:1009F0001092A20102E02091CF013091D0014091EC
:100A0000D1015091D2016091D3017091D4018091B4
:100A1000D5019091D6010E94BF0A26C085E090E0E2
:100A20000E94720C8091A2018D7F8130E9F4F20165
:100A300080818F5F823010F4808301C0108202E0D9
:100A40002091CF013091D0014091D1015091D2013C
:100A50006091D3017091D4018091D5019091D6011C
:100A60000E94BF0A1092A2018091A201823021F05F
:100A700080919C018F3090F20E9405021092A20199
:100A80000E94A10710C010929F010E94A1070BC0F5
:100A90001092A20180919D0190919E0101969093E8
:100AA0009E0180939D0180919D0190919E018630D1
:100AB000910529F410929E0110929D0108C00196A3
:100AC00031F485E090E090939E0180939D018091A8
:100AD0009F01882309F43ACD80919C018F3008F45E
:100AE0006BCD34CD1092A20106EB11E0F8016081CC
:100AF00081E06827608384E090E00E942A0DD8019D
:100B00008C91882369F08FE49EE4A0E2B0E08093AA
:100B1000C5019093C601A093C701B093C80116CD3B
:100B20008FE496E4A6E4B0E08093C5019093C601FB
:100B3000A093C701B093C80109CD1092A20106CDC0
:100B40001092A20103CD1092A20102ED11E0D80192
:100B50006C9181E068276C9380E090E00E942A0D00
:100B6000F8018081882369F08FE49EE4A0E2B0E080
:100B70008093BB019093BC01A093BD01B093BE01D3
:100B8000E5CC8FE496E4A6E4B0E08093BB019093BB
:100B9000BC01A093BD01B093BE01D8CC80919C0153
:100BA0008F3020F010929C010E94A1078BEA91E007
:100BB0000E940D0C0F2EFBEB8F2EF1E09F2EF02DDF
:100BC0000F2EF5ECAF2EF1E0BF2EF02D0F2EF0E042
:100BD000CF2EF1E0DF2EF02D0F2EF5E0EF2EF1E01D
:100BE000FF2EF02D05E110E02091AB013091AC011A
:100BF0004091AD015091AE016091AF017091B00193
:100C00008091B1019091B2010E94330A9091B30199
:100C10008091AF01981346C08091B4019091B001CA
:100C2000891340C0D1012C919091B20129133AC08F
:100C30009091B6019923B1F19091A101891791F199
:100C40008093A10181E00E94850C0E94A10760E0D1
:100C500070E080E090E00E94960760E08BE091E019
:100C60000E94B00941E351E0BA0184E191E00E94A1
:100C7000CC091092A20110929C018BEA91E00E9493
:100C80000D0C85E090E00E94720C8091A201811110
:100C900004C080919C01833080F380E00E94850C29
:100CA0001092A20198818091AF0198134FCCF3016B
:100CB00080819091B001891349CCD2012C919091FF
:100CC000B201291343CC9091D201992309F43ECC6F
:100CD0009091A001891709F439CC8093A00181E09B
:100CE0000E94850C0E94A10760E070E080E090E027
:100CF0000E94960760E088E191E00E94B00941E31C
:100D000051E0BA0184E191E00E94CC091092A20165
:100D100080919C01833080F48BEA91E00E940D0C5D
:100D200085E090E00E94720C8091A201811104C0C4
:100D300080919C01833080F380E00E94850C1092AA
:100D4000A20104CC1F920F920FB60F9211242F9381
:100D50003F934F935F936F937F938F939F93EF9303
:100D600079B161E07627E9B1E695E6278E2F8170AB
:100D700090E0E9B1E295E695E7706E27262F2170A5
:100D800030E0472F417050E070FF1DC060919A0124
:100D900070919B016F5F7F4F70939B0160939A01ED
:100DA0006233710539F461E070E0709399016093EA
:100DB000980109C06C3B724031F460E370E07093BD
:100DC0009901609398010097E9F060919A01709100
:100DD0009B016F5F7F4F70939B0160939A01623319
:100DE000710539F462E070E07093990160939801A5
:100DF00009C06C3B724031F465E070E0709399017A
:100E00006093980121153105F1F060919A0170917C
:100E10009B016F5F7F4F70939B0160939A016233D8
:100E2000710539F463E070E0709399016093980163
:100E300024C06C3B724039F466E070E07093990115
:100E40006093980107C06091980170919901643096
:100E500071059CF0452B31F5892B21F5232B11F5DC
:100E60006093A201109299011092980110929B0137
:100E700010929A0110929C0115C06115710591F0B4
:100E8000452B81F4892B71F4232B61F46093A2012B
:100E9000109299011092980110929B0110929A0160
:100EA00010929C01EF919F918F917F916F915F9133
:100EB0004F913F912F910F900FBE0F901F9018955B
:100EC0001F920F920FB60F9211248F9380919C0165
:100ED0008F5F80939C018F910F900FBE0F901F909A
:100EE00018951F920F920FB60F9211240F900FBEFC
:100EF0000F901F901895209A259A239A549A229A17
:100F000081E58CBD08952A985C988EBD0DB407FECE
:100F1000FDCF8DB58F778DBD2A9A08952A985C9A5A
:100F20008EBD0DB407FEFDCF2A9A0895CF93C62F2C
:100F300080680E9483078C2F80640E948307CF9172
:100F40000895CF93DF93C8EFD1E080E00E948E0731
:100F500021972097D1F760E070E080E090E00E9458
:100F60009607DF91CF9108952A98289881E090E024
:100F70000E94720C289A0E94A1072A9A8CE00E9473
:100F8000830760E070E080E090E00E94960781E2D5
:100F90000E94830784E00E94830780EA0E948307FF
:100FA00086E10E94830780E20E948307089580649F
:100FB0000E94830708950F931F93CF93DF93082F09
:100FC00010E000521109C801880F991F880F991F5E
:100FD000080F191FC0E0D0E000581E4FF801EC0FB9
:100FE000FD1F84910E948E072196C530D105B1F76F
:100FF000DF91CF911F910F9108950F931F93CF937E
:10100000DF93082F10E000521109C801880F991FC3
:10101000880F991F080F191FC0E0D0E000581E4F1D
:10102000F801EC0FFD1F849180950E948E07219698
:10103000C530D105A9F7DF91CF911F910F91089588
:101040002F923F924F925F926F927F928F929F92D8
:10105000AF92BF92CF92DF92EF92FF920F931F93C6
:10106000CF93DF9300D01F92CDB7DEB7322E24E1AD
:10107000289F5001299FB00C11244501C12CD12C6F
:10108000642E712C462E512C262C7982B601660DC9
:10109000771DC2010E9496071A821B82C5018E58D5
:1010A0009F4F7C0184010E581F4F332049F0EA8185
:1010B000FB81E00FF11F849180950E948E0707C08D
:1010C000EA81FB81EE0DFF1D84910E948E07EA816B
:1010D000FB813196FB83EA833A9739F7FFEFCF1A0A
:1010E000DF0A8AE0880E911C9AE0A90EB11CE2E0AA
:1010F000CE16D10449F6822D99810E94D7070F9010
:101100000F900F90DF91CF911F910F91FF90EF9073
:10111000DF90CF90BF90AF909F908F907F906F9017
:101120005F904F903F902F9008958F929F92AF9233
:10113000BF92CF92DF92EF92FF920F931F93CF93C4
:10114000DF934C016AE070E00E94FA0C5B016B01D6
:10115000CC0CDD1CCC0CDD1CC601860F971FC0E03B
:10116000D0E00F2EFEE4EF2EF1E0FF2EF02D9C01DB
:10117000225B3E4F69018701F601EC0FFD1F849150
:101180000E948E072196C530D105A9F726EFA5014B
:101190002403C001259F900D1124880E991EC401BF
:1011A000880F991F880F991F880E991EC0E0D0E004
:1011B000080D191DF801EC0FFD1F84910E948E0788
:1011C0002196C530D105B1F7DF91CF911F910F91D5
:1011D000FF90EF90DF90CF90BF90AF909F908F9057
:1011E0000895BF92CF92DF92EF92FF920F931F93D9
:1011F000CF93DF93D62EC72E142FB52E6AE070E062
:101200000E94FA0CEB017C01209769F5222359F129
:10121000642F7B2D8D2D9C2D0E94960720E0412F61
:101220006D2D8AE090E00E942008002371F0612F6C
:101230007B2D8D2D9C2D0E9496076AE06D0D21E07F
:10124000412FC7010E94200843C0612F7B2D8D2DA7
:101250009C2D0E9496076AE06D0D20E0412FC7018A
:101260000E94200835C00023D1F0612F7B2D8D2DE9
:101270009C2D0E94960721E0412F6D2DCE010E94EA
:101280002008612F7B2D8D2D9C2D0E9496076AE0F2
:101290006D0D21E0412FC7010E94200819C0612F68
:1012A0007B2D8D2D9C2D0E94960720E0412F6D2DCA
:1012B000CE010E942008612F7B2D8D2D9C2D0E9438
:1012C00096076AE06D0D20E0412FC7010E942008BB
:1012D000DF91CF911F910F91FF90EF90DF90CF9012
:1012E000BF900895CF92DF92EF92FF920F931F93DA
:1012F000CF93DF93E62EF12CC82ED12CB701C60177
:101300000E94960702E710E0C8E6D0E0FE01849153
:101310000E948E072196C017D107C1F7B7016F5FF2
:101320007F4FC6010E949607C0E0D0E008E610E0BB
:101330000B5F1F4FF801EC0FFD1F84910E948E0779
:101340002196CA30D105B1F7C7010E94D707DF91B6
:10135000CF911F910F91FF90EF90DF90CF90089564
:10136000CF93DF93EC01611104C0888181110BC020
:1013700010C08881882369F021960E94FD07899119
:101380008111FBCF06C021960E94DB078991811154
:10139000FBCFDF91CF910895CF92DF92EF92FF9232
:1013A0000F931F93CF93DF93EC016B017A01DC0164
:1013B0000D900020E9F71197CD018C1B9D0BDB01EF
:1013C0000D900020E9F71197A61BB70BFA010190C9
:1013D0000020E9F73197E41BF50BA80FB91FEA0FBE
:1013E000FB1F80E190E08E1B9F0B8C0112F40F5FBE
:1013F0001F4F1595079565E070E080E090E00E9432
:10140000960760E0CE010E94B00910161106ECF4B8
:10141000C0E0D0E080E20E94DB072196C017D10730
:10142000C9F70CC080E20E94DB072196C017D107E4
:10143000C9F760E0C7010E94B0090CC060E0C601B6
:101440000E94B009C0E0D0E0EDCF60E0C6010E948C
:10145000B009EFCFDF91CF911F910F91FF90EF90E7
:10146000DF90CF9008958F929F92AF92BF92CF92CC
:10147000DF92EF92FF920F931F93CF93DF93CDB73D
:10148000DEB728970FB6F894DEBF0FBECDBF298315
:101490003A834B836D837E838F83988760E070E00F
:1014A00080E090E00E9496078D8190E00E94950870
:1014B0008AE30E94DB078E8190E00E9495088AE310
:1014C0000E94DB078F8190E00E94950880E20E94D5
:1014D000DB078885882331F060E083E391E00E9498
:1014E000B00905C060E086E391E00E94B00962E0C7
:1014F00070E080E090E00E9496078A8190E00E9470
:1015000095088FE20E94DB078B8190E00E9495088E
:101510008FE20E94DB07898190E00E94950861E0DC
:1015200070E080E490E00E949607C8010E94950850
:1015300060E089E391E00E94B00964E070E081E43A
:1015400090E00E94960760E0C5010E94B009A401E6
:10155000B601C7010E94CC0928960FB6F894DEBFE9
:101560000FBECDBFDF91CF911F910F91FF90EF90F4
:10157000DF90CF90BF90AF909F908F900895EF92A3
:10158000FF920F931F93CF93DF93CDB7DEB72897CA
:101590000FB6F894DEBF0FBECDBF6D83E22E132FC2
:1015A000F42E0E94A10760E070E080E090E00E94CD
:1015B00096079D81913031F460E08CE391E00E94C8
:1015C000B00905C060E080E491E00E94B0090130FC
:1015D000A1F120F0023009F45FC0A7C000E021E0D3
:1015E00041E050E062E170E08E2D90E00E94F10851
:1015F00061E086E20E94720901E020E041E050E0F3
:101600006BE270E0812F90E00E94F10860E081E3DE
:1016100091E00E94B00982E090E00E94D707FF208D
:1016200031F060E083E391E00E94B0097EC060E0A9
:1016300086E391E00E94B00978C001E021E041E03A
:1016400050E062E170E08E2D90E00E94F10861E0D0
:1016500086E20E94720900E020E041E050E06BE287
:1016600070E0812F90E00E94F10860E081E391E05A
:101670000E94B00982E090E00E94D707FF2031F07D
:1016800060E083E391E00E94B0094FC060E086E330
:1016900091E00E94B00949C000E021E041E050E043
:1016A00062E170E08E2D90E00E94F10861E086E238
:1016B0000E94720920E041E050E06BE270E0812F6F
:1016C00090E00E94F10860E081E391E00E94B0099F
:1016D00081E090E00E94D7070CE010E080E80E94D3
:1016E0008E070150110901151105C1F762E070E084
:1016F00084E490E00E949607FF2061F08FEF0E9443
:101700008E0761E083E391E00E94B0098FEF0E94B1
:101710008E070BC08FEF0E948E0761E086E391E099
:101720000E94B0098FEF0E948E0744E451E067E405
:1017300071E08BE491E00E94CC0928960FB6F894F2
:10174000DEBF0FBECDBFDF91CF911F910F91FF90F4
:10175000EF900895CF93C82F60E070E08FE190E0A4
:101760000E94960761E0C11160E080E591E00E946F
:10177000B00961E070E087E190E00E94960761E0C7
:10178000C13009F060E08CE591E00E94B00962E0B0
:1017900070E085E190E00E94960761E0C23009F0B8
:1017A00060E088E691E00E94B00963E070E08DE0BF
:1017B00090E00E94960761E0C33009F060E084E7A2
:1017C00091E00E94B00964E070E08DE090E00E943A
:1017D000960761E0C43009F060E080E891E00E9483
:1017E000B00965E070E08FE190E00E94960761E04B
:1017F000C53009F060E08CE891E00E94B009CF911B
:101800000895982F9695969596959E70292F220F5C
:10181000220F920F8F70890F08951F93CF93DF933C
:10182000EC0180ED0E949F0C80E00E94D20C81EDC3
:101830000E94C60C0E94E40C0E94010C8E830E9440
:10184000E40C0E94010C8D830E94E40C182F0E946E
:10185000E40C0E94010C8B830E94E40C0E94010C9A
:101860008A830E94E40C0E94010C89830E94EF0C81
:101870000E94010C8883812F8F710E94010C8C8340
:1018800015FB112710F91F830E94C90CDF91CF911E
:101890001F91089582E084BD93E095BD80936E0012
:1018A0008AEF87BDA99A16BC089582E08093B000A4
:1018B000E1EBF0E08081876080830895219A80E8E1
:1018C0008093800080E18093810086E891E090938E
:1018D0008700809386008AE590E09093890080934A
:1018E000880008952FE02093B300B99A1092B200B7
:1018F000009751F020E030E0B99BFECFB99A2F5FFE
:101900003F4F28173907C1F70895882349F0E1E8C8
:10191000F0E080818560808380E880938000089576
:10192000E1E8F0E080818A7F80832998109280002E
:1019300008951092B90088E48093B800089594EA5D
:101940009093BC00ECEBF0E090819923ECF7909140
:10195000B900987F983011F09031A1F48093BB00CA
:1019600084E88093BC00ECEBF0E080818823ECF706
:101970009091B900987F983139F081E0903429F442
:1019800080E0089581E0089580E008950E949F0C12
:10199000089584E98093BC00ECEBF0E0808184FD45
:1019A000FDCF08958093BB0084E88093BC00ECEBEE
:1019B000F0E080818823ECF79091B900987F81E076
:1019C000983209F480E0089584EC8093BC00ECEB3D
:1019D000F0E080818823ECF78091BB00089584E8D3
:1019E0008093BC00ECEBF0E080818823ECF78091E1
:1019F000BB00089597FB072E16F4009407D077FDDF
:101A000009D00E940E0D07FC05D03EF490958195FB
:101A10009F4F0895709561957F4F0895AA1BBB1B3A
:101A200051E107C0AA1FBB1FA617B70710F0A61BDE
:101A3000B70B881F991F5A95A9F780959095BC01FF
:101A4000CD010895F999FECF92BD81BDF89A9927ED
:101A500080B50895262FF999FECF92BD81BDF89AE1
:101A6000019700B4021639F01FBA20BD0FB6F894E2
:0C1A7000FA9AF99A0FBE0895F894FFCF7F
:101A7C004D454E5500524144494F00414C41524D49
:101A8C00203121004F464600414C41524D2032211D
:101A9C00002020202020202020202020202020205A
:101AAC00202000504D00414D0020430041313A00B0
:101ABC0041323A0055700053657400446F776E00E4
:101ACC0054756E65000000000000000050726573D4
:101ADC0065747300000000005365742054696D65D3
:101AEC000000000053657420416C61726D20310060
:101AFC0053657420416C61726D2032004261636BDE
:081B0C000000000000000000D1
:00000001FF
