S01F000045475220333236202D2046696E616C2050726F6A6563742E737265631E
S11300000C94A6010C94C3010C94C3010C94C30179
S11300100C94C3010C94C3010C9446070C94C301C3
S11300200C94C3010C94C3010C94C3010C94C3013C
S11300300C94C3010C94C3010C9499060C94C30151
S11300400C94C3010C94C3010C94C3010C94C3011C
S11300500C94C3010C94C3010C94C3010C94C3010C
S11300600C94C3010C94C30100C0C0C00000393912
S11300703900F0FCFE060206FEFCF000071F3F30CC
S113008020303F1F070010080CFCFEFE000000009B
S11300902020203F3F3F202020000C0E0602028635
S11300A0FE7C380030383C363331303038000C0EAA
S11300B0868282C6FE7C38001838302020313F1FEB
S11300C00E0000C0201804FEFEFE0000030202021F
S11300D0223F3F3F220300FE7E4646C6C6870000FD
S11300E01838302020303F1F0F00C0F0F8BC4CC639
S11300F0C28200000F1F3F3020303F1F0F000E064A
S1130100060606C6F63E0E000000303C0F03000053
S11301100000387CFEC682C6FE7C38000E1F3F31CC
S113012020313F1F0E0078FCFE860286FEFCF8009C
S113013000002121311C1F0F0300000000000000FB
S113014000000000000000000000000000003E412C
S113015041413E00427F40004261514946214145B0
S11301604B311814127F1027454545393C4A4949FB
S11301703001710905033649494936064949291EA2
S1130180000000000000002F00000007000700141A
S11301907F147F14242A7F2A12C4C81026463649A5
S11301A05522500005030000001C2241000041229A
S11301B01C0014083E081408083E080800005030CB
S11301C000101010101000606000002010080402DD
S11301D03E4141413E00427F400042615149462137
S11301E041454B311814127F1027454545393C4A87
S11301F049493001710905033649494936064949D7
S1130200291E00363600000056360000081422412C
S11302100014141414140041221408020151090694
S1130220324959513E7E1111117E7F494949363E6A
S1130230414141227F4141221C7F494949417F0973
S11302400909013E4149497A7F0808087F00417F36
S113025041002040413F017F081422417F4040403B
S1130260407F020C027F7F0408107F3E4141413EE3
S11302707F090909063E4151215E7F091929464635
S11302804949493101017F01013F4040403F1F205E
S113029040201F3F4038403F631408146307087030
S11302A008076151494543007F414100552A552AB9
S11302B0550041417F000402010204404040404097
S11302C0000102040020545454787F4844443838D0
S11302D044444420384444487F3854545418087ED5
S11302E00901020C5252523E7F0804047800447DF6
S11302F040002040443D007F1028440000417F40DE
S1130300007C041804787C08040478384444443895
S11303107C14141408081414187C7C080404084879
S113032054545420043F4440203C4040207C1C2032
S113033040201C3C4030403C44281028440C505081
S1130340503C4464544C44000609090611241FBE61
S1130350CFEFD8E0DEBFCDBF11E0A0E0B1E0E2E135
S1130360FAE102C005900D92A839B107D9F721E04E
S1130370A8E9B1E001C01D92A73DB207E1F70E94D0
S113038030020C94070D0C940000389839983A9870
S1130390309A319A329A089587E090E00E94ED0CE9
S11303A08093B30186E090E00E94ED0C8093B40149
S11303B085E090E00E94ED0C8093B50184E090E02C
S11303C00E94ED0C8093B60183E090E00E94ED0C56
S11303D08093CF0182E090E00E94ED0C8093D001E5
S11303E081E090E00E94ED0C8093D10180E090E0E8
S11303F00E94ED0C8093D20108956091B30187E0CF
S113040090E00E94F50C6091B40186E090E00E94B7
S1130410F50C6091B50185E090E00E94F50C6091C7
S1130420CF0183E090E00E94F50C6091D00182E05E
S113043090E00E94F50C6091D10181E090E00E946F
S1130440F50C089588E10FB6F8948093600010923B
S113045060000FBEE0E6F0E0808380E680830895CC
S1130460F8940E94760C0E948A0C0E94810C0E94CF
S113047022020E9457070E94C5010E94A4070E94FD
S1130480DD0778940E94CC01E6EBF1E08081817075
S11304908083E2EDF1E020812170208391E090934C
S11304A0B70192E09093D301882369F08FE49EE42E
S11304B0A0E2B0E08093C5019093C601A093C70168
S11304C0B093C8010CC08FE496E4A6E4B0E0809336
S11304D0C5019093C601A093C701B093C80122231C
S11304E069F08FE49EE4A0E2B0E08093BB019093B6
S11304F0BC01A093BD01B093BE010CC08FE496E48F
S1130500A6E4B0E08093BB019093BC01A093BD012D
S1130510B093BE01CFECD1E00F2EF0ED6F2EF1E0E1
S11305207F2EF02D0F2EF1ED4F2EF1E05F2EF02DEA
S11305300F2EF5EB2F2EF1E03F2EF02D8091A2012E
S1130540833009F4C6C228F4813061F0823069F046
S11305501CC3853009F4EBC208F4E6C2863009F402
S1130560E9C213C31092A201E9CF1092A20181E063
S113057080939F0110929E0110929D010E94CA07D0
S11305800F2EFDE9EF2EF1E0FF2EF02D0F2EF4EBF0
S1130590AF2EF1E0BF2EF02D0F2EF3EBCF2EF1E0B6
S11305A0DF2EF02D8BC2D7018C910E94D30B80914A
S11305B0A201823091F0833009F461C2813009F0E4
S11305C069C21092A20180919D0190919E010197B0
S11305D090939E0180939D015DC21092A20180912F
S11305E09D0190919E018430910509F426C18530C6
S11305F0910509F43FC2039709F04CC201E0209130
S1130600B3013091B4014091B5015091B6016091AC
S1130610B7017091B8018091B9019091BA010E941B
S1130620E80A1092A20180919C018F3008F04EC01C
S11306301DE03FC0813019F08330F1F03AC0F6017B
S11306408081811102C0108334C08150282F80839F
S113065001E03091B4014091B5015091B60160912F
S1130660B7017091B8018091B9019091BA010E94CB
S1130670E80A1092A2011DC0F60180818F5F8D30BF
S113068010F4808301C0108201E02091B301309105
S1130690B4014091B5015091B6016091B7017091D8
S11306A0B8018091B9019091BA010E94E80A1092B0
S11306B0A20185E090E00E949E0C8091A20182300C
S11306C029F090919C019F3008F4B4CF1092A201BC
S11306D000E02091B3013091B4014091B5015091F3
S11306E0B6016091B7017091B8018091B901909100
S11306F0BA010E94E80A8091A201823009F452C032
S113070090919C019F3008F04DC01CE3813019F09A
S11307108330F1F03AC0F5018081811102C0108369
S113072034C08150382F808300E02091B301409180
S1130730B5015091B6016091B7017091B8018091F3
S1130740B9019091BA010E94E80A1092A2011DC059
S1130750F50180818F5F8C3310F4808301C0108297
S113076000E02091B3013091B4014091B501509162
S1130770B6016091B7017091B8018091B90190916F
S1130780BA010E94E80A1092A20185E090E00E945A
S11307909E0C8091A201823029F090919C019F309F
S11307A008F4B4CF1092A20102E02091B301309179
S11307B0B4014091B5015091B6016091B7017091B7
S11307C0B8018091B9019091BA010E94E80A26C04B
S11307D085E090E00E949E0C8091A2018D7F813083
S11307E0E9F4F10180818F5F823010F4808301C0CD
S11307F0108202E02091B3013091B4014091B5011F
S11308005091B6016091B7017091B8018091B9011E
S11308109091BA010E94E80A1092A2018091A2016B
S1130820823021F080919C018F3090F20E94FD0172
S11308301092A2010E94CA072DC101E02091CF01AC
S11308403091D0014091D1015091D2016091D301F6
S11308507091D4018091D5019091D6010E94E80A4B
S11308601092A20180919C018F3008F04CC01DE0D1
S11308703DC0813019F08330E9F038C0888181119E
S113088002C0188333C08150282F888301E030913F
S1130890D0014091D1015091D2016091D301709166
S11308A0D4018091D5019091D6010E94E80A10925A
S11308B0A2011CC088818F5F8D3010F4888301C031
S11308C0188201E02091CF013091D0014091D101F3
S11308D05091D2016091D3017091D4018091D501DE
S11308E09091D6010E94E80A1092A20185E090E05E
S11308F00E949E0C8091A201823029F090919C016B
S11309009F3008F4B6CF1092A20100E02091CF01ED
S11309103091D0014091D1015091D2016091D30125
S11309207091D4018091D5019091D6010E94E80A7A
S11309308091A201823009F452C090919C019F30B1
S113094008F04DC01CE3813019F08330F1F03AC057
S1130950F3018081811102C0108334C08150382F8B
S1130960808300E02091CF014091D1015091D201C8
S11309706091D3017091D4018091D5019091D601F9
S11309800E94E80A1092A2011DC0F30180818F5FCA
S11309908C3310F4808301C0108200E02091CF01D9
S11309A03091D0014091D1015091D2016091D30195
S11309B07091D4018091D5019091D6010E94E80AEA
S11309C01092A20185E090E00E949E0C8091A20109
S11309D0823029F090919C019F3008F4B4CF10929A
S11309E0A20102E02091CF013091D0014091D101C8
S11309F05091D2016091D3017091D4018091D501BD
S1130A009091D6010E94E80A26C085E090E00E94F9
S1130A109E0C8091A2018D7F8130E9F4F2018081E6
S1130A208F5F823010F4808301C0108202E0209135
S1130A30CF013091D0014091D1015091D201609108
S1130A40D3017091D4018091D5019091D6010E9477
S1130A50E80A1092A2018091A201823021F08091D3
S1130A609C018F3090F20E94FD011092A2010E941D
S1130A70CA0710C010929F010E94CA070BC01092AF
S1130A80A20180919D0190919E01019690939E01F7
S1130A9080939D0180919D0190919E0186309105E6
S1130AA029F410929E0110929D0108C0019631F420
S1130AB085E090E090939E0180939D0180919F0139
S1130AC0882309F43BCD80919C018F3008F46BCDD1
S1130AD035CD1092A20106EB11E0F801608181E0AE
S1130AE06827608384E090E00E94F50CD8018C9123
S1130AF0882369F08FE49EE4A0E2B0E08093C5010E
S1130B009093C601A093C701B093C80117CD8FE499
S1130B1096E4A6E4B0E08093C5019093C601A09347
S1130B20C701B093C8010ACD1092A20107CD10925B
S1130B30A20104CD1092A20102ED11E0D8016C9142
S1130B4081E068276C9380E090E00E94F50CF80146
S1130B508081882369F08FE49EE4A0E2B0E0809372
S1130B60BB019093BC01A093BD01B093BE01E6CC40
S1130B708FE496E4A6E4B0E08093BB019093BC01BB
S1130B80A093BD01B093BE01D9CC80919C018F305C
S1130B9020F010929C010E94CA078BEA91E00E9407
S1130BA0360C0F2EFBEB8F2EF1E09F2EF02D0F2E27
S1130BB0F5ECAF2EF1E0BF2EF02D0F2EF0E0CF2E8E
S1130BC0F1E0DF2EF02D0F2EF5E0EF2EF1E0FF2EF9
S1130BD0F02D05E110E02091AB013091AC01409182
S1130BE0AD015091AE016091AF017091B00180915F
S1130BF0B1019091B2010E945C0A9091B30180917D
S1130C00AF01981346C08091B4019091B00189134B
S1130C1040C0D1012C919091B20129133AC0909116
S1130C20B6019923B1F19091A101891791F18093B3
S1130C30A10181E00E94B10C0E94CA0760E070E04B
S1130C4080E090E00E94BF0760E08BE091E00E94AA
S1130C50D90941E351E0BA0184E191E00E94F50928
S1130C601092A20110929C018BEA91E00E94360C32
S1130C7085E090E00E949E0C8091A201811104C045
S1130C8080919C01833080F380E00E94B10C10922B
S1130C90A20198818091AF01981350CCF301808117
S1130CA09091B00189134ACCD2012C919091B20158
S1130CB0291344CC9091D201992309F43FCC90910B
S1130CC0A001891709F43ACC8093A00181E00E9425
S1130CD0B10C0E94CA0760E070E080E090E00E94DE
S1130CE0BF0760E088E191E00E94D90941E351E047
S1130CF0BA0184E191E00E94F5091092A201809169
S1130D009C01833080F48BEA91E00E94360C85E0EC
S1130D1090E00E949E0C8091A201811104C08091F8
S1130D209C01833080F380E00E94B10C1092A201F8
S1130D3005CC1F920F920FB60F9211242F933F935D
S1130D404F935F938F939F9396B181E0982726B139
S1130D5026952170282736B132FB332730F93827FE
S1130D60492F417090FF1CC080919A0190919B0182
S1130D70019690939B0180939A018233910539F4F3
S1130D8081E090E0909399018093980109C08C3B95
S1130D90924031F484E090E090939901809398011B
S1130DA02223E1F080919A0190919B010196909306
S1130DB09B0180939A018233910539F482E090E09B
S1130DC0909399018093980109C08C3B924031F42F
S1130DD085E090E090939901809398013323E9F0A2
S1130DE080919A0190919B01019690939B0180932D
S1130DF09A018233910539F483E090E0909399014C
S1130E008093980124C08C3B924039F486E090E0B2
S1130E10909399018093980107C0809198019091D3
S1130E209901843091059CF0411125C0211123C002
S1130E30311121C08093A20110929901109298015E
S1130E4010929B0110929A0110929C0114C0009779
S1130E5091F0411110C021110EC031110CC08093CA
S1130E60A201109299011092980110929B01109284
S1130E709A0110929C019F918F915F914F913F91A4
S1130E802F910F900FBE0F901F9018951F920F92E5
S1130E900FB60F9211248F9380919C018F5F8093E2
S1130EA09C018F910F900FBE0F901F90189587B1E2
S1130EB0806687B91092B90088E48093B8000895D9
S1130EC084EA8093BC00ECEBF0E080818823ECF7AB
S1130ED00895880F682B6093BB0084E88093BC005E
S1130EE0ECEBF0E080818823ECF708958093BB005D
S1130EF084E88093BC00ECEBF0E080818823ECF77D
S1130F00089584E88093BC00ECEBF0E080818823B2
S1130F10ECF78091BB000895CF93C62F0E94600721
S1130F2060E088E60E9469078C2F0E9476070E9481
S1130F30600761E088E60E9469070E94810794E9DE
S1130F409093BC00CF910895209A259A239A549A9D
S1130F50229A81E58CBD08952A985C988EBD0DB4C3
S1130F6007FEFDCF8DB58F778DBD2A9A08952A98F7
S1130F705C9A8EBD0DB407FEFDCF2A9A0895CF93D7
S1130F80C62F80680E94AC078C2F80640E94AC0737
S1130F90CF910895CF93DF93C8EFD1E080E00E9412
S1130FA0B70721972097D1F760E070E080E090E0E8
S1130FB00E94BF07DF91CF9108952A98289881E075
S1130FC090E00E949E0C289A0E94CA072A9A8CE0FC
S1130FD00E94AC0760E070E080E090E00E94BF07F0
S1130FE081E20E94AC0784E00E94AC0780EA0E9480
S1130FF0AC0786E10E94AC0780E20E94AC0708952A
S113100080640E94AC0708950F931F93CF93DF93DE
S1131010082F10E000521109C801880F991F880F8A
S1131020991F080F191FC0E0D0E000581E4FF801A7
S1131030EC0FFD1F84910E94B7072196C530D1059E
S1131040B1F7DF91CF911F910F9108950F931F93E3
S1131050CF93DF93082F10E000521109C801880FC5
S1131060991F880F991F080F191FC0E0D0E000587E
S11310701E4FF801EC0FFD1F849180950E94B70765
S11310802196C530D105A9F7DF91CF911F910F911A
S113109008952F923F924F925F926F927F928F9218
S11310A09F92AF92BF92CF92DF92EF92FF920F93F3
S11310B01F93CF93DF9300D01F92CDB7DEB7322EAC
S11310C024E1289F5001299FB00C11244501C12C13
S11310D0D12C642E712C462E512C262C7982B601EB
S11310E0660D771DC2010E94BF071A821B82C501CB
S11310F08E589F4F7C0184010E581F4F332049F0B6
S1131100EA81FB81E00FF11F849180950E94B7076B
S113111007C0EA81FB81EE0DFF1D84910E94B70791
S1131120EA81FB813196FB83EA833A9739F7FFEF33
S1131130CF1ADF0A8AE0880E911C9AE0A90EB11C2E
S1131140E2E0CE16D10449F6822D99810E9400086E
S11311500F900F900F90DF91CF911F910F91FF90FF
S1131160EF90DF90CF90BF90AF909F908F907F9043
S11311706F905F904F903F902F9008958F929F9221
S1131180AF92BF92CF92DF92EF92FF920F931F9391
S1131190CF93DF934C016AE070E00E94C50C5B01C1
S11311A06B01CC0CDD1CCC0CDD1CC601860F971F1B
S11311B0C0E0D0E00F2EFEE4EF2EF1E0FF2EF02D84
S11311C09C01225B3E4F69018701F601EC0FFD1F74
S11311D084910E94B7072196C530D105A9F726EF5F
S11311E0A5012403C001259F900D1124880E991E8A
S11311F0C401880F991F880F991F880E991EC0E09B
S1131200D0E0080D191DF801EC0FFD1F84910E9418
S1131210B7072196C530D105B1F7DF91CF911F9162
S11312200F91FF90EF90DF90CF90BF90AF909F9081
S11312308F900895BF92CF92DF92EF92FF920F9317
S11312401F93CF93DF93D62EC72E142FB52E6AE0AB
S113125070E00E94C50CEB017C01209769F5222304
S113126059F1642F7B2D8D2D9C2D0E94BF0720E00A
S1131270412F6D2D8AE090E00E944908002371F00F
S1131280612F7B2D8D2D9C2D0E94BF076AE06D0D73
S113129021E0412FC7010E94490843C0612F7B2DE3
S11312A08D2D9C2D0E94BF076AE06D0D20E0412F1B
S11312B0C7010E94490835C00023D1F0612F7B2D5E
S11312C08D2D9C2D0E94BF0721E0412F6D2DCE0155
S11312D00E944908612F7B2D8D2D9C2D0E94BF07F4
S11312E06AE06D0D21E0412FC7010E94490819C031
S11312F0612F7B2D8D2D9C2D0E94BF0720E0412F57
S11313006D2DCE010E944908612F7B2D8D2D9C2DC2
S11313100E94BF076AE06D0D20E0412FC7010E94C3
S11313204908DF91CF911F910F91FF90EF90DF90CB
S1131330CF90BF900895CF92DF92EF92FF920F93D8
S11313401F93CF93DF93E62EF12CC82ED12CB70137
S1131350C6010E94BF0702E710E0C8E6D0E0FE0124
S113136084910E94B7072196C017D107C1F7B7012E
S11313706F5F7F4FC6010E94BF07C0E0D0E008E660
S113138010E00B5F1F4FF801EC0FFD1F84910E94CA
S1131390B7072196CA30D105B1F7C7010E940008EA
S11313A0DF91CF911F910F91FF90EF90DF90CF903D
S11313B00895CF93DF93EC01611104C088818111FA
S11313C00BC010C08881882369F021960E942608EA
S11313D089918111FBCF06C021960E94040889914E
S11313E08111FBCFDF91CF910895CF92DF92EF92DD
S11313F0FF920F931F93CF93DF93EC016B017A015C
S1131400DC010D900020E9F71197CD018C1B9D0B99
S1131410DB010D900020E9F71197A61BB70BFA0129
S113142001900020E9F73197E41BF50BA80FB91FD1
S1131430EA0FFB1F80E190E08E1B9F0B8C0112F4DE
S11314400F5F1F4F1595079565E070E080E090E011
S11314500E94BF0760E0CE010E94D9091016110650
S1131460ECF4C0E0D0E080E20E9404082196C017AA
S1131470D107C9F70CC080E20E9404082196C01766
S1131480D107C9F760E0C7010E94D9090CC060E028
S1131490C6010E94D909C0E0D0E0EDCF60E0C601EA
S11314A00E94D909EFCFDF91CF911F910F91FF9047
S11314B0EF90DF90CF9008958F929F92AF92BF925A
S11314C0CF92DF92EF92FF920F931F93CF93DF930C
S11314D0CDB7DEB728970FB6F894DEBF0FBECDBFE9
S11314E029833A834B836D837E838F83988760E05F
S11314F070E080E090E00E94BF078D8190E00E9440
S1131500BE088AE30E9404088E8190E00E94BE080F
S11315108AE30E9404088F8190E00E94BE0880E262
S11315200E9404088885882331F060E083E391E019
S11315300E94D90905C060E086E391E00E94D909C0
S113154062E070E080E090E00E94BF078A8190E052
S11315500E94BE088FE20E9404088B8190E00E94E2
S1131560BE088FE20E940408898190E00E94BE08B0
S113157061E070E080E490E00E94BF07C8010E942F
S1131580BE0860E089E391E00E94D90964E070E05C
S113159081E490E00E94BF0760E0C5010E94D90980
S11315A0A401B601C7010E94F50928960FB6F89464
S11315B0DEBF0FBECDBFDF91CF911F910F91FF9082
S11315C0EF90DF90CF90BF90AF909F908F90089551
S11315D0EF92FF920F931F93CF93DF93CDB7DEB7B4
S11315E028970FB6F894DEBF0FBECDBF6D83E22EF1
S11315F0132FF42E0E94CA0760E070E080E090E0B0
S11316000E94BF079D81913031F460E08CE391E04A
S11316100E94D90905C060E080E491E00E94D909E4
S11316200130A1F120F0023009F45FC0A7C000E04E
S113163021E041E050E062E170E08E2D90E00E94F4
S11316401A0961E086E20E949B0901E020E041E082
S113165050E06BE270E0812F90E00E941A0960E094
S113166081E391E00E94D90982E090E00E940008A1
S1131670FF2031F060E083E391E00E94D9097EC04D
S113168060E086E391E00E94D90978C001E021E09E
S113169041E050E062E170E08E2D90E00E941A0972
S11316A061E086E20E949B0900E020E041E050E016
S11316B06BE270E0812F90E00E941A0960E081E300
S11316C091E00E94D90982E090E00E940008FF2086
S11316D031F060E083E391E00E94D9094FC060E0FB
S11316E086E391E00E94D90949C000E021E041E08D
S11316F050E062E170E08E2D90E00E941A0961E0F2
S113170086E20E949B0920E041E050E06BE270E039
S1131710812F90E00E941A0960E081E391E00E9429
S1131720D90981E090E00E9400080CE010E080E814
S11317300E94B7070150110901151105C1F762E0B4
S113174070E084E490E00E94BF07FF2061F08FEF17
S11317500E94B70761E083E391E00E94D9098FEF0B
S11317600E94B7070BC08FEF0E94B70761E086E3C2
S113177091E00E94D9098FEF0E94B70744E451E039
S113178067E471E08BE491E00E94F50928960FB6B6
S1131790F894DEBF0FBECDBFDF91CF911F910F91A3
S11317A0FF90EF900895CF93C82F60E070E08FE131
S11317B090E00E94BF0761E0C11160E080E591E024
S11317C00E94D90961E070E087E190E00E94BF07C0
S11317D061E0C13009F060E08CE591E00E94D90934
S11317E062E070E085E190E00E94BF0761E0C230F2
S11317F009F060E088E691E00E94D90963E070E0B6
S11318008DE090E00E94BF0761E0C33009F060E022
S113181084E791E00E94D90964E070E08DE090E0F3
S11318200E94BF0761E0C43009F060E080E891E005
S11318300E94D90965E070E08FE190E00E94BF0743
S113184061E0C53009F060E08CE891E00E94D909BC
S1131850CF910895982F9695969596959E70292FD9
S1131860220F220F920F8F70890F0895CF93DF9369
S1131870EC0166E088E60E948C070E942A0C8883AB
S113188065E088E60E948C070E942A0C898364E044
S113189088E60E948C070E942A0C8A8363E088E60B
S11318A00E948C070E942A0C8B8362E088E60E94C7
S11318B08C078F710E942A0C8C8361E088E60E9459
S11318C08C070E942A0C8D8360E088E60E948C07B6
S11318D00E942A0C8E8362E088E60E948C0785FBB6
S11318E0882780F98F83DF91CF91089582E084BDAA
S11318F093E095BD80936E008AEF87BDA99A16BCCC
S1131900089582E08093B000E1EBF0E0808187608D
S113191080830895219A80E88093800080E18093F9
S1131920810086E891E090938700809386008AE5A1
S113193090E0909389008093880008952FE020938D
S1131940B300B99A1092B200009751F020E030E051
S1131950B99BFECFB99A2F5F3F4F28173907C1F7BC
S11319600895882349F0E1E8F0E080818560808370
S113197080E8809380000895E1E8F0E080818A7F28
S11319808083299810928000089597FB072E16F4FF
S1131990009407D077FD09D00E94D90C07FC05D02C
S11319A03EF4909581959F4F0895709561957F4F72
S11319B00895AA1BBB1B51E107C0AA1FBB1FA61792
S11319C0B70710F0A61BB70B881F991F5A95A9F7E4
S11319D080959095BC01CD010895F999FECF92BDF3
S11319E081BDF89A992780B50895262FF999FECFDD
S11319F092BD81BDF89A019700B4021639F01FBA5E
S1131A0020BD0FB6F894FA9AF99A0FBE0895F89487
S1051A10FFCF02
S1131A124D454E5500524144494F00414C41524DAF
S1131A22203121004F464600414C41524D20322183
S1131A3200202020202020202020202020202020C0
S1131A42202000504D00414D0020430041313A0016
S1131A5241323A0055700053657400446F776E004A
S1131A6254756E650000000000000000507265733A
S1131A7265747300000000005365742054696D6539
S1131A820000000053657420416C61726D203100C6
S1131A9253657420416C61726D2032004261636B44
S10B1AA2000000000000000038
S9030000FC
