S01F000045475220333236202D2046696E616C2050726F6A6563742E737265631E
S11300000C94A6010C94C3010C94C3010C94C30179
S11300100C94C3010C94C3010C947E070C94C3018B
S11300200C94C3010C94C3010C94C3010C94C3013C
S11300300C94C3010C94C3010C94C0060C94C3012A
S11300400C94C3010C94C3010C94C3010C94C3011C
S11300500C94C3010C948F070C94C3010C94C3013A
S11300600C94C3010C94C30100C0C0C00000393912
S11300703900F0FCFE060206FEFCF000071F3F30CC
S113008020303F1F070010080CFCFEFE000000009B
S11300902020203F3F3F202020000C0E0602028635
S11300A0FE7C380030383C363331303038000C0EAA
S11300B0868282C6FE7C38001838302020313F1FEB
S11300C00E0000C0201804FEFEFE0000030202021F
S11300D0223F3F3F220300FE7E4646C6C6870000FD
S11300E01838302020303F1F0F00C0F0F8BC4CC639
S11300F0C28200000F1F3F3020303F1F0F000E064A
S1130100060606C6F63E0E000000303C0F03000053
S11301100000387CFEC682C6FE7C38000E1F3F31CC
S113012020313F1F0E0078FCFE860286FEFCF8009C
S113013000002121311C1F0F0300000000000000FB
S113014000000000000000000000000000003E412C
S113015041413E00427F40004261514946214145B0
S11301604B311814127F1027454545393C4A4949FB
S11301703001710905033649494936064949291EA2
S1130180000000000000002F00000007000700141A
S11301907F147F14242A7F2A12C4C81026463649A5
S11301A05522500005030000001C2241000041229A
S11301B01C0014083E081408083E080800005030CB
S11301C000101010101000606000002010080402DD
S11301D03E4141413E00427F400042615149462137
S11301E041454B311814127F1027454545393C4A87
S11301F049493001710905033649494936064949D7
S1130200291E00363600000056360000081422412C
S11302100014141414140041221408020151090694
S1130220324959513E7E1111117E7F494949363E6A
S1130230414141227F4141221C7F494949417F0973
S11302400909013E4149497A7F0808087F00417F36
S113025041002040413F017F081422417F4040403B
S1130260407F020C027F7F0408107F3E4141413EE3
S11302707F090909063E4151215E7F091929464635
S11302804949493101017F01013F4040403F1F205E
S113029040201F3F4038403F631408146307087030
S11302A008076151494543007F414100552A552AB9
S11302B0550041417F000402010204404040404097
S11302C0000102040020545454787F4844443838D0
S11302D044444420384444487F3854545418087ED5
S11302E00901020C5252523E7F0804047800447DF6
S11302F040002040443D007F1028440000417F40DE
S1130300007C041804787C08040478384444443895
S11303107C14141408081414187C7C080404084879
S113032054545420043F4440203C4040207C1C2032
S113033040201C3C4030403C44281028440C505081
S1130340503C4464544C44000609090611241FBE61
S1130350CFEFD8E0DEBFCDBF11E0A0E0B1E0E6E82A
S1130360FBE102C005900D92A839B107D9F721E04D
S1130370A8E9B1E001C01D92A73DB207E1F70E94D0
S113038038020C94C10D0C94000050985198559863
S113039056985798589A599A5D9A5E9A5F9A3B9ADA
S11303A03E9A439A469A089587E090E00E94A70DEA
S11303B08093B30186E090E00E94A70D8093B4017E
S11303C085E090E00E94A70D8093B50184E090E061
S11303D00E94A70D8093B60183E090E00E94A70DD0
S11303E08093CF0182E090E00E94A70D8093D0011A
S11303F081E090E00E94A70D8093D10180E090E01D
S11304000E94A70D8093D20108956091B30187E003
S113041090E00E94AF0D6091B40186E090E00E94EC
S1130420AF0D6091B50185E090E00E94AF0D609141
S1130430CF0183E090E00E94AF0D6091D00182E093
S113044090E00E94AF0D6091D10181E090E00E94A4
S1130450AF0D089588E10FB6F89480936000109270
S113046060000FBEE0E6F0E0808380E680830895BC
S1130470F8940E94CF0C0E94E30C0E94DA0C0E94B4
S11304802A020E941E0D0E94C5010E9499070E9423
S1130490D207789488E0682F8093A70189E3782FA6
S11304A08093A8011092A901C1E0C093AA018BE036
S11304B0482F8093A50193E0592F9093A601382FDC
S11304C08093A4018EE0282F8093A30180E09C2FC9
S11304D00E943E0C0E94D401E6EBF1E08081817021
S11304E08083E2EDF1E0208121702083C093B70185
S11304F092E09093D301882369F08FE49EE4A0E214
S1130500B0E08093C5019093C601A093C701B09356
S1130510C8010CC08FE496E4A6E4B0E08093C50162
S11305209093C601A093C701B093C801222369F038
S11305308FE49EE4A0E2B0E08093BB019093BC0101
S1130540A093BD01B093BE010CC08FE496E4A6E471
S1130550B0E08093BB019093BC01A093BD01B09324
S1130560BE01CFECD1E00F2EF0ED6F2EF1E07F2E27
S1130570F02D0F2EF1ED4F2EF1E05F2EF02D0F2E0A
S1130580F5EB2F2EF1E03F2EF02D8091A201833068
S113059009F4C6C228F4813061F0823069F01CC3CA
S11305A0853009F4EBC208F4E6C2863009F4E9C2E6
S11305B013C31092A201E9CF1092A20181E08093AB
S11305C09F0110929E0110929D010E94BF070F2E61
S11305D0FDE9EF2EF1E0FF2EF02D0F2EF4EBAF2E00
S11305E0F1E0BF2EF02D0F2EF3EBCF2EF1E0DF2E36
S11305F0F02D8BC2D7018C910E94C80B8091A2016F
S1130600823091F0833009F461C2813009F069C20B
S11306101092A20180919D0190919E010197909367
S11306209E0180939D015DC21092A20180919D0163
S113063090919E018430910509F426C1853091057D
S113064009F43FC2039709F04CC201E02091B301C1
S11306503091B4014091B5015091B6016091B70158
S11306607091B8018091B9019091BA010E94DD0A9C
S11306701092A20180919C018F3008F04EC01DE0C1
S11306803FC0813019F08330F1F03AC0F601808127
S1130690811102C0108334C08150282F808301E06F
S11306A03091B4014091B5015091B6016091B70108
S11306B07091B8018091B9019091BA010E94DD0A4C
S11306C01092A2011DC0F60180818F5F8D3010F45D
S11306D0808301C0108201E02091B3013091B40104
S11306E04091B5015091B6016091B7017091B80184
S11306F08091B9019091BA010E94DD0A1092A20181
S113070085E090E00E94F70C8091A201823029F0EC
S113071090919C019F3008F4B4CF1092A20100E0A4
S11307202091B3013091B4014091B5015091B601CB
S11307306091B7017091B8018091B9019091BA01AB
S11307400E94DD0A8091A201823009F452C0909186
S11307509C019F3008F04DC01CE3813019F08330B8
S1130760F1F03AC0F5018081811102C0108334C0D8
S11307708150382F808300E02091B3014091B5016E
S11307805091B6016091B7017091B8018091B9019F
S11307909091BA010E94DD0A1092A2011DC0F501D8
S11307A080818F5F8C3310F4808301C0108200E05D
S11307B02091B3013091B4014091B5015091B6013B
S11307C06091B7017091B8018091B9019091BA011B
S11307D00E94DD0A1092A20185E090E00E94F70CCD
S11307E08091A201823029F090919C019F3008F4FD
S11307F0B4CF1092A20102E02091B3013091B40170
S11308004091B5015091B6016091B7017091B80162
S11308108091B9019091BA010E94DD0A26C085E059
S113082090E00E94F70C8091A2018D7F8130E9F461
S1130830F10180818F5F823010F4808301C01082C7
S113084002E02091B3013091B4014091B50150917F
S1130850B6016091B7017091B8018091B90190918E
S1130860BA010E94DD0A1092A2018091A201823095
S113087021F080919C018F3090F20E940502109229
S1130880A2010E94BF072DC101E02091CF01309148
S1130890D0014091D1015091D2016091D301709166
S11308A0D4018091D5019091D6010E94DD0A109265
S11308B0A20180919C018F3008F04CC01DE03DC026
S11308C0813019F08330E9F038C08881811102C089
S11308D0188333C08150282F888301E03091D001E0
S11308E04091D1015091D2016091D3017091D40112
S11308F08091D5019091D6010E94DD0A1092A20147
S11309001CC088818F5F8D3010F4888301C01882E9
S113091001E02091CF013091D0014091D10150915B
S1130920D2016091D3017091D4018091D50190914D
S1130930D6010E94DD0A1092A20185E090E00E9497
S1130940F70C8091A201823029F090919C019F3094
S113095008F4B6CF1092A20100E02091CF013091AB
S1130960D0014091D1015091D2016091D301709195
S1130970D4018091D5019091D6010E94DD0A809125
S1130980A201823009F452C090919C019F3008F07A
S11309904DC01CE3813019F08330F1F03AC0F3010B
S11309A08081811102C0108334C08150382F80832C
S11309B000E02091CF014091D1015091D20160918A
S11309C0D3017091D4018091D5019091D6010E94F8
S11309D0DD0A1092A2011DC0F30180818F5F8C3368
S11309E010F4808301C0108200E02091CF01309187
S11309F0D0014091D1015091D2016091D301709105
S1130A00D4018091D5019091D6010E94DD0A109203
S1130A10A20185E090E00E94F70C8091A20182304F
S1130A2029F090919C019F3008F4B4CF1092A20158
S1130A3002E02091CF013091D0014091D101509139
S1130A40D2016091D3017091D4018091D50190912C
S1130A50D6010E94DD0A26C085E090E00E94F70CD2
S1130A608091A2018D7F8130E9F4F20180818F5F52
S1130A70823010F4808301C0108202E02091CF0103
S1130A803091D0014091D1015091D2016091D301B4
S1130A907091D4018091D5019091D6010E94DD0A14
S1130AA01092A2018091A201823021F080919C01D8
S1130AB08F3090F20E9405021092A2010E94BF079B
S1130AC010C010929F010E94BF070BC01092A20198
S1130AD080919D0190919E01019690939E01809337
S1130AE09D0180919D0190919E018630910529F48C
S1130AF010929E0110929D0108C0019631F485E088
S1130B0090E090939E0180939D0180919F018823A2
S1130B1009F43BCD80919C018F3008F46BCD35CD29
S1130B201092A20106EB11E0F801608181E06827D0
S1130B30608384E090E00E94AF0DD8018C918823FB
S1130B4069F08FE49EE4A0E2B0E08093C501909345
S1130B50C601A093C701B093C80117CD8FE496E4F2
S1130B60A6E4B0E08093C5019093C601A093C701A9
S1130B70B093C8010ACD1092A20107CD1092A20130
S1130B8004CD1092A20102ED11E0D8016C9181E034
S1130B9068276C9380E090E00E94AF0DF80180819B
S1130BA0882369F08FE49EE4A0E2B0E08093BB0167
S1130BB09093BC01A093BD01B093BE01E6CC8FE439
S1130BC096E4A6E4B0E08093BB019093BC01A093AB
S1130BD0BD01B093BE01D9CC80919C018F3020F02F
S1130BE010929C010E94BF078BEA91E00E94920C34
S1130BF00F2EFBEB8F2EF1E09F2EF02D0F2EF5EC38
S1130C00AF2EF1E0BF2EF02D0F2EF0E0CF2EF1E04D
S1130C10DF2EF02D0F2EF5E0EF2EF1E0FF2EF02D5C
S1130C2005E110E02091AB013091AC014091AD01A0
S1130C305091AE016091AF017091B0018091B1010A
S1130C409091B2010E94510A9091B3018091AF0139
S1130C50981346C08091B4019091B001891340C0AB
S1130C60D1012C919091B20129133AC09091B6010F
S1130C709923B1F19091A101891791F18093A10178
S1130C8081E00E940A0D0E94BF0760E070E080E0EE
S1130C9090E00E94B40760E08BE091E00E94CE09EE
S1130CA041E351E0BA0184E191E00E94EA09109223
S1130CB0A20110929C018BEA91E00E94920C85E0C3
S1130CC090E00E94F70C8091A201811104C08091F0
S1130CD09C01833080F380E00E940A0D1092A201EF
S1130CE098818091AF01981350CCF3018081909149
S1130CF0B00189134ACCD2012C919091B2012913ED
S1130D0044CC9091D201992309F43FCC9091A00155
S1130D10891709F43ACC8093A00181E00E940A0D5E
S1130D200E94BF0760E070E080E090E00E94B4079A
S1130D3060E088E191E00E94CE0941E351E0BA010C
S1130D4084E191E00E94EA091092A20180919C0141
S1130D50833080F48BEA91E00E94920C85E090E06D
S1130D600E94F70C8091A201811104C080919C0122
S1130D70833080F380E00E940A0D1092A20105CC1A
S1130D801F920F920FB60F9211242F933F934F93FC
S1130D905F936F937F938F939F93EF9379B161E008
S1130DA07627E9B1E695E6278E2F817090E0E9B1C8
S1130DB0E295E695E7706E27262F217030E0472FE5
S1130DC0417050E070FF1DC060919A0170919B01C9
S1130DD06F5F7F4F70939B0160939A01623371053B
S1130DE039F461E070E0709399016093980109C04F
S1130DF06C3B724031F464E070E07093990160934D
S1130E0098010097E9F060919A0170919B016F5FDE
S1130E107F4F70939B0160939A016233710539F49B
S1130E2062E070E0709399016093980109C06C3B93
S1130E30724031F465E070E0709399016093980119
S1130E4021153105F1F060919A0170919B016F5F5A
S1130E507F4F70939B0160939A016233710539F45B
S1130E6063E070E0709399016093980124C06C3B37
S1130E70724039F466E070E07093990160939801D0
S1130E8007C06091980170919901643071059CF0DC
S1130E90452B31F5892B21F5232B11F56093A20104
S1130EA0109299011092980110929B0110929A014C
S1130EB010929C0115C06115710591F0452B81F4C8
S1130EC0892B71F4232B61F46093A2011092990190
S1130ED01092980110929B0110929A0110929C0119
S1130EE0EF919F918F917F916F915F914F913F917E
S1130EF02F910F900FBE0F901F9018951F920F9275
S1130F000FB60F9211248F9380919C018F5F809371
S1130F109C018F910F900FBE0F901F9018951F92F8
S1130F200F920FB60F9211240F900FBE0F901F90C7
S1130F301895209A259A239A549A229A81E58CBD71
S1130F4008952A985C988EBD0DB407FEFDCF8DB52B
S1130F508F778DBD2A9A08952A985C9A8EBD0DB418
S1130F6007FEFDCF2A9A0895CF93C62F80680E946A
S1130F70A1078C2F80640E94A107CF910895CF937D
S1130F80DF93C8EFD1E080E00E94AC07219720975F
S1130F90D1F760E070E080E090E00E94B407DF9158
S1130FA0CF9108952A98289881E090E00E94F70C48
S1130FB0289A0E94BF072A9A8CE00E94A10760E049
S1130FC070E080E090E00E94B40781E20E94A107F3
S1130FD087E00E94A10780EA0E94A10786E10E949F
S1130FE0A10780E20E94A107089580640E94A107DE
S1130FF008950F931F93CF93DF93082F10E00052AF
S11310001109C801880F991F880F991F080F191F0C
S1131010C0E0D0E000581E4FF801EC0FFD1F849192
S11310200E94AC072196C530D105B1F7DF91CF916D
S11310301F910F9108950F931F93CF93DF93082F60
S113104010E000521109C801880F991F880F991FD9
S1131050080F191FC0E0D0E000581E4FF801EC0F34
S1131060FD1F849180950E94AC072196C530D1055F
S1131070A9F7DF91CF911F910F9108952F923F927D
S11310804F925F926F927F928F929F92AF92BF9294
S1131090CF92DF92EF92FF920F931F93CF93DF9340
S11310A000D01F92CDB7DEB7322E24E1289F500125
S11310B0299FB00C11244501C12CD12C642E712C14
S11310C0462E512C262C7982B601660D771DC2015D
S11310D00E94B4071A821B82C5018E589F4F7C015F
S11310E084010E581F4F332049F0EA81FB81E00F41
S11310F0F11F849180950E94AC0707C0EA81FB81AF
S1131100EE0DFF1D84910E94AC07EA81FB813196AC
S1131110FB83EA833A9739F7FFEFCF1ADF0A8AE0B5
S1131120880E911C9AE0A90EB11CE2E0CE16D104FF
S113113049F6822D99810E94F5070F900F900F9028
S1131140DF91CF911F910F91FF90EF90DF90CF909F
S1131150BF90AF909F908F907F906F905F904F90D3
S11311603F902F9008958F929F92AF92BF92CF920B
S1131170DF92EF92FF920F931F93CF93DF934C0173
S11311806AE070E00E947F0D5B016B01CC0CDD1CFA
S1131190CC0CDD1CC601860F971FC0E0D0E00F2EDB
S11311A0FEE4EF2EF1E0FF2EF02D9C01225B3E4F7A
S11311B069018701F601EC0FFD1F84910E94AC07C1
S11311C02196C530D105A9F726EFA5012403C00156
S11311D0259F900D1124880E991EC401880F991F14
S11311E0880F991F880E991EC0E0D0E0080D191DC4
S11311F0F801EC0FFD1F84910E94AC072196C530C5
S1131200D105B1F7DF91CF911F910F91FF90EF902E
S1131210DF90CF90BF90AF909F908F900895BF9232
S1131220CF92DF92EF92FF920F931F93CF93DF93AE
S1131230D62EC72E142FB52E6AE070E00E947F0DC3
S1131240EB017C01209769F5222359F1642F7B2D52
S11312508D2D9C2D0E94B40720E0412F6D2D8AE036
S113126090E00E943E08002371F0612F7B2D8D2DAC
S11312709C2D0E94B4076AE06D0D21E0412FC70147
S11312800E943E0843C0612F7B2D8D2D9C2D0E9412
S1131290B4076AE06D0D20E0412FC7010E943E08AB
S11312A035C00023D1F0612F7B2D8D2D9C2D0E9404
S11312B0B40721E0412F6D2DCE010E943E08612F1D
S11312C07B2D8D2D9C2D0E94B4076AE06D0D21E0CD
S11312D0412FC7010E943E0819C0612F7B2D8D2D1F
S11312E09C2D0E94B40720E0412F6D2DCE010E9459
S11312F03E08612F7B2D8D2D9C2D0E94B4076AE042
S11313006D0D20E0412FC7010E943E08DF91CF916F
S11313101F910F91FF90EF90DF90CF90BF900895B1
S1131320CF92DF92EF92FF920F931F93CF93DF93AD
S1131330E62EF12CC82ED12CB701C6010E94B407A9
S113134002E710E0C8E6D0E0FE0184910E94AC07F9
S11313502196C017D107C1F7B7016F5F7F4FC60150
S11313600E94B407C0E0D0E008E610E00B5F1F4F16
S1131370F801EC0FFD1F84910E94AC072196CA303E
S1131380D105B1F7C7010E94F507DF91CF911F91F5
S11313900F91FF90EF90DF90CF900895CF93DF935C
S11313A0EC01611104C0888181110BC010C08881D7
S11313B0882369F021960E941B0889918111FBCF33
S11313C006C021960E94F90789918111FBCFDF9114
S11313D0CF910895CF92DF92EF92FF920F931F93D4
S11313E0CF93DF93EC016B017A01DC010D900020B7
S11313F0E9F71197CD018C1B9D0BDB010D900020AB
S1131400E9F71197A61BB70BFA0101900020E9F741
S11314103197E41BF50BA80FB91FEA0FFB1F80E1FE
S113142090E08E1B9F0B8C0112F40F5F1F4F1595DC
S1131430079565E070E080E090E00E94B40760E00A
S1131440CE010E94CE0910161106ECF4C0E0D0E0E3
S113145080E20E94F9072196C017D107C9F70CC092
S113146080E20E94F9072196C017D107C9F760E00E
S1131470C7010E94CE090CC060E0C6010E94CE09DB
S1131480C0E0D0E0EDCF60E0C6010E94CE09EFCF0E
S1131490DF91CF911F910F91FF90EF90DF90CF904C
S11314A008958F929F92AF92BF92CF92DF92EF9264
S11314B0FF920F931F93CF93DF93CDB7DEB7289797
S11314C00FB6F894DEBF0FBECDBF29833A834B839A
S11314D06D837E838F83988760E070E080E090E086
S11314E00E94B4078D8190E00E94B3088AE30E94B1
S11314F0F9078E8190E00E94B3088AE30E94F907FD
S11315008F8190E00E94B30880E20E94F9078885E9
S1131510882331F060E083E391E00E94CE0905C0A6
S113152060E086E391E00E94CE0962E070E080E032
S113153090E00E94B4078A8190E00E94B3088FE291
S11315400E94F9078B8190E00E94B3088FE20E9409
S1131550F907898190E00E94B30861E070E080E4BB
S113156090E00E94B407C8010E94B30860E089E3D8
S113157091E00E94CE0964E070E081E490E00E9472
S1131580B40760E0C5010E94CE09A401B601C701F9
S11315900E94EA0928960FB6F894DEBF0FBECDBFAD
S11315A0DF91CF911F910F91FF90EF90DF90CF903B
S11315B0BF90AF909F908F900895EF92FF920F93FA
S11315C01F93CF93DF93CDB7DEB728970FB6F89468
S11315D0DEBF0FBECDBF6D83E22E132FF42E0E940B
S11315E0BF0760E070E080E090E00E94B4079D8156
S11315F0913031F460E08CE391E00E94CE0905C0A3
S113160060E080E491E00E94CE090130A1F120F075
S1131610023009F45FC0A7C000E021E041E050E0DF
S113162062E170E08E2D90E00E940F0961E086E295
S11316300E94900901E020E041E050E06BE270E09C
S1131640812F90E00E940F0960E081E391E00E9405
S1131650CE0982E090E00E94F507FF2031F060E0BF
S113166083E391E00E94CE097EC060E086E391E0CE
S11316700E94CE0978C001E021E041E050E062E13F
S113168070E08E2D90E00E940F0961E086E20E94D6
S1131690900900E020E041E050E06BE270E0812F2F
S11316A090E00E940F0960E081E391E00E94CE097E
S11316B082E090E00E94F507FF2031F060E083E3D0
S11316C091E00E94CE094FC060E086E391E00E9461
S11316D0CE0949C000E021E041E050E062E170E061
S11316E08E2D90E00E940F0961E086E20E9490092D
S11316F020E041E050E06BE270E0812F90E00E9436
S11317000F0960E081E391E00E94CE0981E090E05E
S11317100E94F5070CE010E080E80E94AC0701503D
S1131720110901151105C1F762E070E084E490E04D
S11317300E94B407FF2061F08FEF0E94AC0761E0C4
S113174083E391E00E94CE098FEF0E94AC070BC0A7
S11317508FEF0E94AC0761E086E391E00E94CE091E
S11317608FEF0E94AC0744E451E067E471E08BE43E
S113177091E00E94EA0928960FB6F894DEBF0FBEE6
S1131780CDBFDF91CF911F910F91FF90EF900895FE
S1131790CF93C82F60E070E08FE190E00E94B4071F
S11317A061E0C11160E080E591E00E94CE0961E052
S11317B070E087E190E00E94B40761E0C13009F075
S11317C060E08CE591E00E94CE0962E070E085E182
S11317D090E00E94B40761E0C23009F060E088E65E
S11317E091E00E94CE0963E070E08DE090E00E94F9
S11317F0B40761E0C33009F060E084E791E00E943F
S1131800CE0964E070E08DE090E00E94B40761E0EE
S1131810C43009F060E080E891E00E94CE0965E000
S113182070E08FE190E00E94B40761E0C53009F0F8
S113183060E08CE891E00E94CE09CF910895982F42
S11318409695969596959E70292F220F220F920FAA
S11318508F70890F08959DEC899F912D1124969581
S11318609695969540E1949F90011124990F392FF4
S1131870330F330F930F891B822B08951F93CF933C
S1131880DF93CDB7DEB728970FB6F894DEBF0FBE4F
S1131890CDBF29833A834B835C837E838F83988770
S11318A0162F80ED0E94240D80E00E94570D8F8139
S11318B00E942B0C0E94570D8E810E942B0C0E94BB
S11318C0570D8885882339F0812F0E942B0C806660
S11318D00E94570D07C0812F0E942B0C8F798064C2
S11318E00E94570D8C810E942B0C0E94570D8B81F6
S11318F00E942B0C0E94570D8A810E942B0C0E947F
S1131900570D89810E942B0C0E94570D0E944E0D89
S113191028960FB6F894DEBF0FBECDBFDF91CF91EE
S11319201F9108951F93CF93DF93EC0180ED0E94E4
S1131930240D80E00E94570D81ED0E944B0D0E9402
S1131940690D0E941F0C8E830E94690D0E941F0C5A
S11319508D830E94690D182F0E94690D0E941F0C2F
S11319608B830E94690D0E941F0C8A830E94690D5B
S11319700E941F0C89830E94740D0E941F0C88838F
S1131980812F8F710E941F0C8C8315FB112710F976
S11319901F830E944E0DDF91CF911F91089582E025
S11319A084BD93E095BD80936E008AEF87BDA99AAC
S11319B016BC089582E08093B000E1EBF0E08081F2
S11319C0876080830895219A80E88093800080E175
S11319D08093810086E891E090938700809386004D
S11319E08AE590E0909389008093880008952FE021
S11319F02093B300B99A1092B200009751F020E0FE
S1131A0030E0B99BFECFB99A2F5F3F4F28173907B3
S1131A10C1F70895882349F0E1E8F0E0808185600A
S1131A20808380E8809380000895E1E8F0E080817D
S1131A308A7F808329981092800008951092B900BB
S1131A4088E48093B800089594EA9093BC00ECEB8A
S1131A50F0E090819923ECF79091B900987F983049
S1131A6011F09031A1F48093BB0084E88093BC0012
S1131A70ECEBF0E080818823ECF79091B900987F3B
S1131A80983139F081E0903429F480E0089581E0C0
S1131A90089580E008950E94240D089584E98093B8
S1131AA0BC00ECEBF0E0808184FDFDCF08958093D1
S1131AB0BB0084E88093BC00ECEBF0E080818823D9
S1131AC0ECF79091B900987F81E0983209F480E0B6
S1131AD0089584EC8093BC00ECEBF0E080818823D3
S1131AE0ECF78091BB00089584E88093BC00ECEB94
S1131AF0F0E080818823ECF78091BB00089597FB88
S1131B00072E16F4009407D077FD09D00E94930D98
S1131B1007FC05D03EF4909581959F4F08957095EC
S1131B2061957F4F0895AA1BBB1B51E107C0AA1FF3
S1131B30BB1FA617B70710F0A61BB70B881F991F6A
S1131B405A95A9F780959095BC01CD010895F9990E
S1131B50FECF92BD81BDF89A992780B50895262FAE
S1131B60F999FECF92BD81BDF89A019700B402168F
S1131B7039F01FBA20BD0FB6F894FA9AF99A0FBE3D
S1091B800895F894FFCF64
S1131B864D454E5500524144494F00414C41524D3A
S1131B96203121004F464600414C41524D2032210E
S1131BA6002020202020202020202020202020204B
S1131BB6202000504D00414D0020430041313A00A1
S1131BC641323A0055700053657400446F776E00D5
S1131BD654756E65000000000000000050726573C5
S1131BE665747300000000005365742054696D65C4
S1131BF60000000053657420416C61726D20310051
S1131C0653657420416C61726D2032004261636BCE
S10B1C160000000000000000C2
S9030000FC
