S01F000045475220333236202D2046696E616C2050726F6A6563742E737265631E
S11300000C9433010C9450010C9450010C94500145
S11300100C9450010C9450010C9450010C94500118
S11300200C9450010C9450010C9450010C94500108
S11300300C9450010C9450010C9456010C945001F2
S11300400C9450010C9450010C9450010C945001E8
S11300500C9450010C9450010C9450010C945001D8
S11300600C9450010C9450013E4141413E00427FAA
S1130070400042615149462141454B311814127FD9
S11300801027454545393C4A494930017109050362
S11300903649494936064949291E00000000000036
S11300A0002F00000007000700147F147F14242A87
S11300B07F2A12C4C810264636495522500005032B
S11300C00000001C2241000041221C0014083E08CC
S11300D01408083E080800005030001010101010DA
S11300E0006060000020100804023E4141413E00CF
S11300F0427F400042615149462141454B31181429
S1130100127F1027454545393C4A49493001710958
S113011005033649494936064949291E0036360041
S1130120000056360000081422410014141414145C
S113013000412214080201510906324959513E7EF8
S11301401111117E7F494949363E414141227F4187
S113015041221C7F494949417F090909013E41491E
S1130160497A7F0808087F00417F41002040413FD1
S1130170017F081422417F404040407F020C027FEF
S11301807F0408107F3E4141413E7F090909063E34
S11301904151215E7F0919294646494949310101E6
S11301A07F01013F4040403F1F2040201F3F403817
S11301B0403F6314081463070870080761514945F8
S11301C043007F414100552A552A550041417F0093
S11301D004020102044040404040000102040020A7
S11301E0545454787F484444383844444420384470
S11301F044487F3854545418087E0901020C525262
S1130200523E7F0804047800447D40002040443D71
S1130210007F1028440000417F40007C04180478CB
S11302207C0804047838444444387C1414140808C2
S11302301414187C7C080404084854545420043FC3
S11302404440203C4040207C1C2040201C3C40304A
S1130250403C44281028440C5050503C4464544CB6
S113026044000609090611241FBECFEFD8E0DEBF03
S1130270CDBF11E0A0E0B1E0E0EEF0E102C00590F6
S11302800D92A638B107D9F721E0A6E8B1E001C084
S11302901D92A43AB207E1F70E9475030C946E080C
S11302A00C940000309A319A329A08951F920F925A
S11302B00FB60F9211242F933F934F935F938F9315
S11302C09F9396B181E0982726B12695217028271F
S11302D036B132FB332730F93827492F417090FF6C
S11302E01CC08091880190918901019690938901A5
S11302F0809388018233910539F481E090E09093F2
S113030087018093860109C08C3B924031F484E0DC
S113031090E090938701809386012223E1F08091FD
S113032088019091890101969093890180938801B5
S11303308233910539F482E090E0909387018093B1
S1130340860109C08C3B924031F485E090E09093A3
S11303508701809386013323E9F08091880190918D
S113036089010196909389018093880182339105D4
S113037039F483E090E0909387018093860122C052
S11303808C3B924039F486E090E09093870180930F
S1130390860107C080918601909187018430910580
S11303A08CF0411121C021111FC031111DC0809357
S11303B08B0110928701109286011092890110928C
S11303C0880112C0009781F041110EC021110CC0A8
S11303D031110AC080938B0110928701109286011B
S11303E010928901109288019F918F915F914F9192
S11303F03F912F910F900FBE0F901F901895209151
S1130400920130E0C9010F968D3391050CF0CC9721
S1130410089582E090E00E9454088093980181E05E
S113042090E00E9454088093990180E090E00E943B
S1130430540880939B0108956091980182E090E0B4
S11304400E945C086091990181E090E00E945C0840
S113045060919B0180E090E00E945C080895BF9247
S1130460CF92DF92EF92FF920F931F93CF93DF937C
S11304700F2EFFE2CF2EF1E0DF2EF02D0F2EF0E055
S1130480EF2EF1E0FF2EF02D06E011E02091940113
S11304903091950140919601509197016091980196
S11304A07091990180919A0190919B010E94E306B9
S11304B010928B01C8E9D1E00F2EFCE0BF2EF02D85
S11304C057C0813019F0833051F152C088818111B5
S11304D002C0B8824DC08150682F88830F2EFFE27E
S11304E0CF2EF1E0DF2EF02D0F2EF0E0EF2EF1E015
S11304F0FF2EF02D06E011E020919401309195013A
S113050040919601509197017091990180919A01BF
S113051090919B010E94E30610928B0129C088816F
S11305208F5F8D3010F4888301C018820F2EFFE294
S1130530CF2EF1E0DF2EF02D0F2EF0E0EF2EF1E0C4
S1130540FF2EF02D06E011E02091940130919501E9
S11305504091960150919701609198017091990191
S113056080919A0190919B010E94E30610928B0165
S113057085E090E00E94FE0780918B01823009F0B3
S1130580A0CF10928B01C9E9D1E00F2EFBE3BF2E5F
S1130590F02D57C0813019F0833051F152C0888159
S11305A0811102C0B8824DC08150782F88830F2EEC
S11305B0FFE2CF2EF1E0DF2EF02D0F2EF0E0EF2E34
S11305C0F1E0FF2EF02D06E011E02091940130912E
S11305D09501409196015091970160919801809105
S11305E09A0190919B010E94E30610928B0129C00D
S11305F088818F5F8C3310F4888301C018820F2E9A
S1130600FFE2CF2EF1E0DF2EF02D0F2EF0E0EF2EE3
S1130610F1E0FF2EF02D06E011E0209194013091DD
S113062095014091960150919701609198017091C4
S1130630990180919A0190919B010E94E306109286
S11306408B0185E090E00E94FE0780918B0182304F
S113065009F0A0CF10928B01CBE9D1E085E090E0C6
S11306600E94FE0780918B018D7F813051F5888136
S11306708F5F823010F4888301C018820F2EFFE24E
S1130680CF2EF1E0DF2EF02D0F2EF0E0EF2EF1E073
S1130690FF2EF02D06E011E0209194013091950198
S11306A04091960150919701609198017091990140
S11306B080919A0190919B010E94E30610928B0114
S11306C0CDCF80918B01823049F60E941C0210929A
S11306D08B010E940B05DF91CF911F910F91FF9029
S11306E0EF90DF90CF90BF900895CF93DF93CDB775
S11306F0DEB763970FB6F894DEBF0FBECDBFF89494
S11307000E94D6070E94EA070E94E1070E9498040B
S11307100E9452010E94E5040E941E0578948FE411
S11307209EE4A0E2B0E08B879C87AD87BE878FE410
S113073096E4A6E4B0E08F87988BA98BBA8BBE01B0
S1130740615F7F4FCE0101960E944D080E9409020D
S11307501B8A0F2EF8E98F2EF1E09F2EF02D0F2E1D
S1130760F0E92F2EF1E03F2EF02D612C712C0F2E8D
S1130770F5E04F2EF02D512C8CE891E00E94960765
S1130780CE0101965C010F2EF9E0CF2EF1E0DF2EB1
S1130790F02D0F2EFEE0EF2EF1E0FF2EF02D05E1FF
S11307A010E020918C0130918D0140918E01509187
S11307B08F016091900170919101809192019091CB
S11307C093010E946506F4019081F10180819813E0
S11307D053C0E9E9F1E0F080E1E9F1E08081F81249
S11307E04BC090919B0180919301981345C08091D7
S11307F08A01882309F440C0FB89FF15E9F181E0EF
S11308000E9411080E940B0560E070E080E090E017
S11308100E94000560E084E191E00E94E2054FE25D
S113082051E0BA018BE191E00E94FE0510928B0128
S11308300E94FF018C01E2E9F1E0808190E08017E1
S1130840910799F08CE891E00E94960785E090E08A
S11308500E94FE0780918B01811107C0E2E9F1E05B
S1130860808190E08017910769F780E00E94110869
S113087010928B01FB8A80CF80918B01823019F01A
S11308808330E1F179CF10928B010E940B0500E0D7
S113089010E0FF24F394802F0E94330780918B0192
S11308A0823049F08330B1F08130C1F410928B0171
S11308B00150110913C010928B010330110521F06E
S11308C00530110521F006C00E942F0203C00E94CA
S11308D00B05F12C10928B010F5F1F4F0630110591
S11308E029F00F3FFFEF1F0731F403C0062D172D2A
S11308F002C0042D152DF110CECF3ECF90918A0168
S113090081E0892780938A01882341F0BE01655FD5
S11309107F4FCE0101960E944D0807C0BE01615F62
S11309207F4FCE0101960E944D0810928B0124CF77
S113093087B1806687B91092B90088E48093B800C3
S1130940089584EA8093BC00ECEBF0E08081882376
S1130950ECF70895880F682B6093BB0084E88093BC
S1130960BC00ECEBF0E080818823ECF708958093E1
S1130970BB0084E88093BC00ECEBF0E0808188232A
S1130980ECF7089584E88093BC00ECEBF0E0808100
S11309908823ECF78091BB000895CF93C62F0E9463
S11309A0A10460E088E60E94AA048C2F0E94B70488
S11309B00E94A10461E088E60E94AA040E94C20485
S11309C094E99093BC00CF910895209A259A239A94
S11309D0549A229A81E58CBD08952A985C988EBD1C
S11309E00DB407FEFDCF8DB58F778DBD2A9A08957E
S11309F02A985C9A8EBD0DB407FEFDCF2A9A0895FD
S1130A00CF93C62F80680E94ED048C2F80640E94CF
S1130A10ED04CF910895CF93DF93C8EFD1E080E048
S1130A200E94F80421972097D1F760E070E080E0FD
S1130A3090E00E940005DF91CF9108952A982898AC
S1130A4081E090E00E94FE07289A0E940B052A9AF2
S1130A508CE00E94ED0460E070E080E090E00E9491
S1130A60000581E20E94ED0486E00E94ED0480EA24
S1130A700E94ED0486E10E94ED0480E20E94ED04F0
S1130A8008950F931F93CF93DF93082F10E0005224
S1130A901109C801880F991F880F991F080F191F82
S1130AA0C0E0D0E006561F4FF801EC0FFD1F849103
S1130AB00E94F8042196C530D105B1F7DF91CF919A
S1130AC01F910F9108950F931F93CF93DF93082FD6
S1130AD010E000521109C801880F991F880F991F4F
S1130AE0080F191FC0E0D0E006561F4FF801EC0FA5
S1130AF0FD1F849180950E94F8042196C530D1058C
S1130B00A9F7DF91CF911F910F9108958F929F9232
S1130B10AF92BF92CF92DF92EF92FF920F931F9307
S1130B20CF93DF934C016AE070E00E9425085B01DB
S1130B306B01CC0CDD1CCC0CDD1CC601860F971F91
S1130B40C0E0D0E00F2EF8E6EF2EF0E0FF2EF02DFF
S1130B509C0128593F4F69018701F601EC0FFD1FE5
S1130B6084910E94F8042196C530D105A9F726EF97
S1130B70A5012403C001259F900D1124880E991E00
S1130B80C401880F991F880F991F880E991EC0E011
S1130B90D0E0080D191DF801EC0FFD1F84910E948F
S1130BA0F8042196C530D105B1F7DF91CF911F919B
S1130BB00F91FF90EF90DF90CF90BF90AF909F90F8
S1130BC08F900895CF93DF93EC01611104C0888165
S1130BD081110BC010C08881882369F021960E947E
S1130BE0630589918111FBCF06C021960E944105BE
S1130BF089918111FBCFDF91CF910895CF92DF923C
S1130C00EF92FF920F931F93CF93DF93EC016B014D
S1130C107A01DC010D900020E9F71197CD018C1BBE
S1130C209D0BDB010D900020E9F71197A61BB70B74
S1130C30FA0101900020E9F73197E41BF50BA80FA6
S1130C40B91FEA0FFB1F80E190E08E1B9F0B8C0104
S1130C5012F40F5F1F4F1595079565E070E080E073
S1130C6090E00E94000560E0CE010E94E2051016AB
S1130C701106ECF4C0E0D0E080E20E944105219628
S1130C80C017D107C9F70CC080E20E944105219624
S1130C90C017D107C9F760E0C7010E94E2050CC084
S1130CA060E0C6010E94E205C0E0D0E0EDCF60E064
S1130CB0C6010E94E205EFCFDF91CF911F910F9102
S1130CC0FF90EF90DF90CF900895AF92BF92CF92B4
S1130CD0DF92EF92FF920F931F93CF93DF93CDB7E1
S1130CE0DEB728970FB6F894DEBF0FBECDBF2983B9
S1130CF03A834B836D837E838F83988760E070E0B3
S1130D0080E090E00E9400058D8190E00E948605BD
S1130D108AE30E9441058E8190E00E9486058AE361
S1130D200E9441058F8190E00E94860580E20E9426
S1130D3041058885882331F060E081E391E00E94D9
S1130D40E20505C060E084E391E00E94E20562E010
S1130D5070E080E090E00E9400058A8190E00E94AB
S1130D6086058FE20E9441058B8190E00E948605F2
S1130D708FE20E944105898190E00E94860561E02E
S1130D8070E080E490E00E940005C8010E9486059E
S1130D9060E087E391E00E94E205A501B601C70186
S1130DA00E94FE0528960FB6F894DEBF0FBECDBF95
S1130DB0DF91CF911F910F91FF90EF90DF90CF9033
S1130DC0BF90AF900895CF92DF92EF92FF920F936E
S1130DD01F93CF93DF93CDB7DEB728970FB6F89460
S1130DE0DEBF0FBECDBF6D837E8398870E940B0547
S1130DF060E070E080E090E00E94000560E08AE33B
S1130E0091E00E94E2058D8190E00E9486058AE3CC
S1130E100E9441058E8190E00E94860580E20E9436
S1130E2041058885882331F060E081E391E00E94E8
S1130E30E20505C060E084E391E00E94E205A601BA
S1130E40B701C8010E94FE0528960FB6F894DEBFCC
S1130E500FBECDBFDF91CF911F910F91FF90EF9007
S1130E60DF90CF900895CF93C82F60E070E08FE1BA
S1130E7090E00E94000561E0C11160E08EE391E022
S1130E800E94E20561E070E087E190E00E940005C5
S1130E9061E0C13009F060E08AE491E00E94E2057B
S1130EA062E070E085E190E00E94000561E0C230FC
S1130EB009F060E086E591E00E94E20563E070E0FD
S1130EC08DE090E00E94000561E0C33009F060E02D
S1130ED082E691E00E94E20564E070E08DE090E03B
S1130EE00E94000561E0C43009F060E08EE691E004
S1130EF00E94E20565E070E08FE190E00E94000549
S1130F0061E0C53009F060E08AE791E00E94E20503
S1130F10CF910895982F9695969596959E70292F22
S1130F20220F220F920F8F70890F0895CF93DF93B2
S1130F30EC0166E088E60E94CD040E948A0788835B
S1130F4065E088E60E94CD040E948A07898364E0F4
S1130F5088E60E94CD040E948A078A8363E088E6BB
S1130F600E94CD040E948A078B8362E088E60E9477
S1130F70CD048F710E948A078C8361E088E60E9409
S1130F80CD040E948A078D8360E088E60E94CD0428
S1130F900E948A078E8362E088E60E94CD0485FB66
S1130FA0882780F98F83DF91CF91089582E084BDF3
S1130FB093E095BD80936E008AEF87BDA99A16BC15
S1130FC0089582E08093B000E1EBF0E080818760D7
S1130FD080830895219A80E88093800080E1809343
S1130FE0810086E891E090938700809386008AE5EB
S1130FF090E0909389008093880008952FE02093D7
S1131000B300B99A1092B200009751F020E030E09A
S1131010B99BFECFB99A2F5F3F4F28173907C1F705
S11310200895882349F0E1E8F0E0808185608083B9
S113103080E8809380000895E1E8F0E080818A7F71
S11310408083299810928000089597FB072E16F448
S1131050009407D077FD09D00E94390807FC05D019
S11310603EF4909581959F4F0895709561957F4FBB
S11310700895AA1BBB1B51E107C0AA1FBB1FA617DB
S1131080B70710F0A61BB70B881F991F5A95A9F72D
S113109080959095BC01CD010895FB01DC01019080
S11310A00D920020E1F70895F999FECF92BD81BD1C
S11310B0F89A992780B50895262FF999FECF92BD05
S11310C081BDF89A019700B4021639F01FBA20BD09
S11310D00FB6F894FA9AF99A0FBE0895F894FFCFD0
S11310E0454E544552005550004D454E5500524111
S11310F044494F00414C41524D21004F4646002087
S113110020202020202020202020202020202020DB
S113111000504D00414D0020430041313A005475C8
S11311206E65000000000000000050726573657475
S11311307300000000005365742054696D6500005D
S1131140000053657420416C61726D203100536559
S11311507420416C61726D2032004261636B000047
S109116000000000000085
S9030000FC
